{
  "address": "0x219C04d9e768f632621fb33120c9735E31C1dcAc",
  "abi": [
    {
      "inputs": [
        {
          "internalType": "contract RecursiveExchange",
          "name": "_recursiveExchange",
          "type": "address"
        }
      ],
      "stateMutability": "nonpayable",
      "type": "constructor"
    },
    {
      "anonymous": false,
      "inputs": [
        {
          "indexed": true,
          "internalType": "address",
          "name": "owner",
          "type": "address"
        },
        {
          "indexed": true,
          "internalType": "address",
          "name": "approved",
          "type": "address"
        },
        {
          "indexed": true,
          "internalType": "uint256",
          "name": "tokenId",
          "type": "uint256"
        }
      ],
      "name": "Approval",
      "type": "event"
    },
    {
      "anonymous": false,
      "inputs": [
        {
          "indexed": true,
          "internalType": "address",
          "name": "owner",
          "type": "address"
        },
        {
          "indexed": true,
          "internalType": "address",
          "name": "operator",
          "type": "address"
        },
        {
          "indexed": false,
          "internalType": "bool",
          "name": "approved",
          "type": "bool"
        }
      ],
      "name": "ApprovalForAll",
      "type": "event"
    },
    {
      "anonymous": false,
      "inputs": [
        {
          "indexed": true,
          "internalType": "address",
          "name": "from",
          "type": "address"
        },
        {
          "indexed": true,
          "internalType": "address",
          "name": "to",
          "type": "address"
        },
        {
          "indexed": true,
          "internalType": "uint256",
          "name": "tokenId",
          "type": "uint256"
        }
      ],
      "name": "Transfer",
      "type": "event"
    },
    {
      "inputs": [
        {
          "internalType": "address",
          "name": "to",
          "type": "address"
        },
        {
          "internalType": "uint256",
          "name": "tokenId",
          "type": "uint256"
        }
      ],
      "name": "approve",
      "outputs": [],
      "stateMutability": "nonpayable",
      "type": "function"
    },
    {
      "inputs": [
        {
          "internalType": "address",
          "name": "owner",
          "type": "address"
        }
      ],
      "name": "balanceOf",
      "outputs": [
        {
          "internalType": "uint256",
          "name": "",
          "type": "uint256"
        }
      ],
      "stateMutability": "view",
      "type": "function"
    },
    {
      "inputs": [
        {
          "internalType": "uint256",
          "name": "tokenId",
          "type": "uint256"
        }
      ],
      "name": "getApproved",
      "outputs": [
        {
          "internalType": "address",
          "name": "",
          "type": "address"
        }
      ],
      "stateMutability": "view",
      "type": "function"
    },
    {
      "inputs": [
        {
          "internalType": "address",
          "name": "owner",
          "type": "address"
        },
        {
          "internalType": "address",
          "name": "operator",
          "type": "address"
        }
      ],
      "name": "isApprovedForAll",
      "outputs": [
        {
          "internalType": "bool",
          "name": "",
          "type": "bool"
        }
      ],
      "stateMutability": "view",
      "type": "function"
    },
    {
      "inputs": [
        {
          "internalType": "uint256",
          "name": "_offeringId",
          "type": "uint256"
        },
        {
          "internalType": "string",
          "name": "_recursiveArtCID",
          "type": "string"
        }
      ],
      "name": "mintRecursiveNFT",
      "outputs": [],
      "stateMutability": "nonpayable",
      "type": "function"
    },
    {
      "inputs": [],
      "name": "name",
      "outputs": [
        {
          "internalType": "string",
          "name": "",
          "type": "string"
        }
      ],
      "stateMutability": "view",
      "type": "function"
    },
    {
      "inputs": [
        {
          "internalType": "uint256",
          "name": "tokenId",
          "type": "uint256"
        }
      ],
      "name": "ownerOf",
      "outputs": [
        {
          "internalType": "address",
          "name": "",
          "type": "address"
        }
      ],
      "stateMutability": "view",
      "type": "function"
    },
    {
      "inputs": [],
      "name": "recursiveExchange",
      "outputs": [
        {
          "internalType": "contract RecursiveExchange",
          "name": "",
          "type": "address"
        }
      ],
      "stateMutability": "view",
      "type": "function"
    },
    {
      "inputs": [],
      "name": "recursiveTokenId",
      "outputs": [
        {
          "internalType": "uint256",
          "name": "_value",
          "type": "uint256"
        }
      ],
      "stateMutability": "view",
      "type": "function"
    },
    {
      "inputs": [
        {
          "internalType": "address",
          "name": "from",
          "type": "address"
        },
        {
          "internalType": "address",
          "name": "to",
          "type": "address"
        },
        {
          "internalType": "uint256",
          "name": "tokenId",
          "type": "uint256"
        }
      ],
      "name": "safeTransferFrom",
      "outputs": [],
      "stateMutability": "nonpayable",
      "type": "function"
    },
    {
      "inputs": [
        {
          "internalType": "address",
          "name": "from",
          "type": "address"
        },
        {
          "internalType": "address",
          "name": "to",
          "type": "address"
        },
        {
          "internalType": "uint256",
          "name": "tokenId",
          "type": "uint256"
        },
        {
          "internalType": "bytes",
          "name": "_data",
          "type": "bytes"
        }
      ],
      "name": "safeTransferFrom",
      "outputs": [],
      "stateMutability": "nonpayable",
      "type": "function"
    },
    {
      "inputs": [
        {
          "internalType": "address",
          "name": "operator",
          "type": "address"
        },
        {
          "internalType": "bool",
          "name": "approved",
          "type": "bool"
        }
      ],
      "name": "setApprovalForAll",
      "outputs": [],
      "stateMutability": "nonpayable",
      "type": "function"
    },
    {
      "inputs": [
        {
          "internalType": "bytes4",
          "name": "interfaceId",
          "type": "bytes4"
        }
      ],
      "name": "supportsInterface",
      "outputs": [
        {
          "internalType": "bool",
          "name": "",
          "type": "bool"
        }
      ],
      "stateMutability": "view",
      "type": "function"
    },
    {
      "inputs": [],
      "name": "symbol",
      "outputs": [
        {
          "internalType": "string",
          "name": "",
          "type": "string"
        }
      ],
      "stateMutability": "view",
      "type": "function"
    },
    {
      "inputs": [
        {
          "internalType": "uint256",
          "name": "tokenId",
          "type": "uint256"
        }
      ],
      "name": "tokenURI",
      "outputs": [
        {
          "internalType": "string",
          "name": "",
          "type": "string"
        }
      ],
      "stateMutability": "view",
      "type": "function"
    },
    {
      "inputs": [
        {
          "internalType": "address",
          "name": "from",
          "type": "address"
        },
        {
          "internalType": "address",
          "name": "to",
          "type": "address"
        },
        {
          "internalType": "uint256",
          "name": "tokenId",
          "type": "uint256"
        }
      ],
      "name": "transferFrom",
      "outputs": [],
      "stateMutability": "nonpayable",
      "type": "function"
    }
  ],
  "transactionHash": "0x9de3825a2d70bdfbdff33eeac69265954e42921786a84a235761c10e12a35d34",
  "args": [
    "0x301e91d3dA99b7d591625e03C27A67F559116259"
  ],
  "numDeployments": 2,
  "solcInputHash": "1913319d39b6cd9373e4d39a81f2f6bb",
  "bytecode": "0x60806040523480156200001157600080fd5b50604051620031c6380380620031c68339818101604052810190620000379190620001e6565b6040518060400160405280600f81526020017f5265637572736976654172744e465400000000000000000000000000000000008152506040518060400160405280600581526020017f52414e46540000000000000000000000000000000000000000000000000000008152508160009080519060200190620000bb9291906200011f565b508060019080519060200190620000d49291906200011f565b50505080600860006101000a81548173ffffffffffffffffffffffffffffffffffffffff021916908373ffffffffffffffffffffffffffffffffffffffff16021790555050620002d9565b8280546200012d906200025a565b90600052602060002090601f0160209004810192826200015157600085556200019d565b82601f106200016c57805160ff19168380011785556200019d565b828001600101855582156200019d579182015b828111156200019c5782518255916020019190600101906200017f565b5b509050620001ac9190620001b0565b5090565b5b80821115620001cb576000816000905550600101620001b1565b5090565b600081519050620001e081620002bf565b92915050565b600060208284031215620001f957600080fd5b60006200020984828501620001cf565b91505092915050565b60006200021f826200023a565b9050919050565b6000620002338262000212565b9050919050565b600073ffffffffffffffffffffffffffffffffffffffff82169050919050565b600060028204905060018216806200027357607f821691505b602082108114156200028a576200028962000290565b5b50919050565b7f4e487b7100000000000000000000000000000000000000000000000000000000600052602260045260246000fd5b620002ca8162000226565b8114620002d657600080fd5b50565b612edd80620002e96000396000f3fe608060405234801561001057600080fd5b50600436106101005760003560e01c806370a0823111610097578063c87b56dd11610066578063c87b56dd146102a9578063cff92f9e146102d9578063e985e9c5146102f7578063fbd13e9c1461032757610100565b806370a082311461022357806395d89b4114610253578063a22cb46514610271578063b88d4fde1461028d57610100565b8063095ea7b3116100d3578063095ea7b31461019f57806323b872dd146101bb57806342842e0e146101d75780636352211e146101f357610100565b806301ffc9a71461010557806304dd8d811461013557806306fdde0314610151578063081812fc1461016f575b600080fd5b61011f600480360381019061011a9190611e30565b610345565b60405161012c91906122bc565b60405180910390f35b61014f600480360381019061014a9190611eab565b610427565b005b61015961057e565b60405161016691906122f2565b60405180910390f35b61018960048036038101906101849190611e82565b610610565b6040516101969190612255565b60405180910390f35b6101b960048036038101906101b49190611df4565b610695565b005b6101d560048036038101906101d09190611cee565b6107ad565b005b6101f160048036038101906101ec9190611cee565b61080d565b005b61020d60048036038101906102089190611e82565b61082d565b60405161021a9190612255565b60405180910390f35b61023d60048036038101906102389190611c00565b6108df565b60405161024a9190612534565b60405180910390f35b61025b610997565b60405161026891906122f2565b60405180910390f35b61028b60048036038101906102869190611db8565b610a29565b005b6102a760048036038101906102a29190611d3d565b610a3f565b005b6102c360048036038101906102be9190611e82565b610aa1565b6040516102d091906122f2565b60405180910390f35b6102e1610ab3565b6040516102ee9190612534565b60405180910390f35b610311600480360381019061030c9190611c29565b610abf565b60405161031e91906122bc565b60405180910390f35b61032f610b53565b60405161033c91906122d7565b60405180910390f35b60007f80ac58cd000000000000000000000000000000000000000000000000000000007bffffffffffffffffffffffffffffffffffffffffffffffffffffffff1916827bffffffffffffffffffffffffffffffffffffffffffffffffffffffff1916148061041057507f5b5e139f000000000000000000000000000000000000000000000000000000007bffffffffffffffffffffffffffffffffffffffffffffffffffffffff1916827bffffffffffffffffffffffffffffffffffffffffffffffffffffffff1916145b80610420575061041f82610b79565b5b9050919050565b6000600860009054906101000a900473ffffffffffffffffffffffffffffffffffffffff1673ffffffffffffffffffffffffffffffffffffffff1663603fe2d6846040518263ffffffff1660e01b81526004016104849190612534565b60c06040518083038186803b15801561049c57600080fd5b505afa1580156104b0573d6000803e3d6000fd5b505050506040513d601f19601f820116820180604052508101906104d49190611c65565b505050509150503373ffffffffffffffffffffffffffffffffffffffff168173ffffffffffffffffffffffffffffffffffffffff1614610549576040517f08c379a000000000000000000000000000000000000000000000000000000000815260040161054090612354565b60405180910390fd5b6105536007610be3565b610566336105616007610bf9565b610c07565b6105796105736007610bf9565b83610dd5565b505050565b60606000805461058d906127ae565b80601f01602080910402602001604051908101604052809291908181526020018280546105b9906127ae565b80156106065780601f106105db57610100808354040283529160200191610606565b820191906000526020600020905b8154815290600101906020018083116105e957829003601f168201915b5050505050905090565b600061061b82610e49565b61065a576040517f08c379a000000000000000000000000000000000000000000000000000000000815260040161065190612494565b60405180910390fd5b6004600083815260200190815260200160002060009054906101000a900473ffffffffffffffffffffffffffffffffffffffff169050919050565b60006106a08261082d565b90508073ffffffffffffffffffffffffffffffffffffffff168373ffffffffffffffffffffffffffffffffffffffff161415610711576040517f08c379a0000000000000000000000000000000000000000000000000000000008152600401610708906124f4565b60405180910390fd5b8073ffffffffffffffffffffffffffffffffffffffff16610730610eb5565b73ffffffffffffffffffffffffffffffffffffffff16148061075f575061075e81610759610eb5565b610abf565b5b61079e576040517f08c379a0000000000000000000000000000000000000000000000000000000008152600401610795906123d4565b60405180910390fd5b6107a88383610ebd565b505050565b6107be6107b8610eb5565b82610f76565b6107fd576040517f08c379a00000000000000000000000000000000000000000000000000000000081526004016107f490612514565b60405180910390fd5b610808838383611054565b505050565b61082883838360405180602001604052806000815250610a3f565b505050565b6000806002600084815260200190815260200160002060009054906101000a900473ffffffffffffffffffffffffffffffffffffffff169050600073ffffffffffffffffffffffffffffffffffffffff168173ffffffffffffffffffffffffffffffffffffffff1614156108d6576040517f08c379a00000000000000000000000000000000000000000000000000000000081526004016108cd90612414565b60405180910390fd5b80915050919050565b60008073ffffffffffffffffffffffffffffffffffffffff168273ffffffffffffffffffffffffffffffffffffffff161415610950576040517f08c379a0000000000000000000000000000000000000000000000000000000008152600401610947906123f4565b60405180910390fd5b600360008373ffffffffffffffffffffffffffffffffffffffff1673ffffffffffffffffffffffffffffffffffffffff168152602001908152602001600020549050919050565b6060600180546109a6906127ae565b80601f01602080910402602001604051908101604052809291908181526020018280546109d2906127ae565b8015610a1f5780601f106109f457610100808354040283529160200191610a1f565b820191906000526020600020905b815481529060010190602001808311610a0257829003601f168201915b5050505050905090565b610a3b610a34610eb5565b83836112b0565b5050565b610a50610a4a610eb5565b83610f76565b610a8f576040517f08c379a0000000000000000000000000000000000000000000000000000000008152600401610a8690612514565b60405180910390fd5b610a9b8484848461141d565b50505050565b6060610aac82611479565b9050919050565b60078060000154905081565b6000600560008473ffffffffffffffffffffffffffffffffffffffff1673ffffffffffffffffffffffffffffffffffffffff16815260200190815260200160002060008373ffffffffffffffffffffffffffffffffffffffff1673ffffffffffffffffffffffffffffffffffffffff16815260200190815260200160002060009054906101000a900460ff16905092915050565b600860009054906101000a900473ffffffffffffffffffffffffffffffffffffffff1681565b60007f01ffc9a7000000000000000000000000000000000000000000000000000000007bffffffffffffffffffffffffffffffffffffffffffffffffffffffff1916827bffffffffffffffffffffffffffffffffffffffffffffffffffffffff1916149050919050565b6001816000016000828254019250508190555050565b600081600001549050919050565b600073ffffffffffffffffffffffffffffffffffffffff168273ffffffffffffffffffffffffffffffffffffffff161415610c77576040517f08c379a0000000000000000000000000000000000000000000000000000000008152600401610c6e90612454565b60405180910390fd5b610c8081610e49565b15610cc0576040517f08c379a0000000000000000000000000000000000000000000000000000000008152600401610cb790612334565b60405180910390fd5b610ccc600083836115cb565b6001600360008473ffffffffffffffffffffffffffffffffffffffff1673ffffffffffffffffffffffffffffffffffffffff1681526020019081526020016000206000828254610d1c9190612619565b92505081905550816002600083815260200190815260200160002060006101000a81548173ffffffffffffffffffffffffffffffffffffffff021916908373ffffffffffffffffffffffffffffffffffffffff160217905550808273ffffffffffffffffffffffffffffffffffffffff16600073ffffffffffffffffffffffffffffffffffffffff167fddf252ad1be2c89b69c2b068fc378daa952ba7f163c4a11628f55a4df523b3ef60405160405180910390a45050565b610dde82610e49565b610e1d576040517f08c379a0000000000000000000000000000000000000000000000000000000008152600401610e1490612434565b60405180910390fd5b80600660008481526020019081526020016000209080519060200190610e449291906119e5565b505050565b60008073ffffffffffffffffffffffffffffffffffffffff166002600084815260200190815260200160002060009054906101000a900473ffffffffffffffffffffffffffffffffffffffff1673ffffffffffffffffffffffffffffffffffffffff1614159050919050565b600033905090565b816004600083815260200190815260200160002060006101000a81548173ffffffffffffffffffffffffffffffffffffffff021916908373ffffffffffffffffffffffffffffffffffffffff160217905550808273ffffffffffffffffffffffffffffffffffffffff16610f308361082d565b73ffffffffffffffffffffffffffffffffffffffff167f8c5be1e5ebec7d5bd14f71427d1e84f3dd0314c0f7b2291e5b200ac8c7c3b92560405160405180910390a45050565b6000610f8182610e49565b610fc0576040517f08c379a0000000000000000000000000000000000000000000000000000000008152600401610fb7906123b4565b60405180910390fd5b6000610fcb8361082d565b90508073ffffffffffffffffffffffffffffffffffffffff168473ffffffffffffffffffffffffffffffffffffffff16148061103a57508373ffffffffffffffffffffffffffffffffffffffff1661102284610610565b73ffffffffffffffffffffffffffffffffffffffff16145b8061104b575061104a8185610abf565b5b91505092915050565b8273ffffffffffffffffffffffffffffffffffffffff166110748261082d565b73ffffffffffffffffffffffffffffffffffffffff16146110ca576040517f08c379a00000000000000000000000000000000000000000000000000000000081526004016110c1906124b4565b60405180910390fd5b600073ffffffffffffffffffffffffffffffffffffffff168273ffffffffffffffffffffffffffffffffffffffff16141561113a576040517f08c379a000000000000000000000000000000000000000000000000000000000815260040161113190612374565b60405180910390fd5b6111458383836115cb565b611150600082610ebd565b6001600360008573ffffffffffffffffffffffffffffffffffffffff1673ffffffffffffffffffffffffffffffffffffffff16815260200190815260200160002060008282546111a091906126a0565b925050819055506001600360008473ffffffffffffffffffffffffffffffffffffffff1673ffffffffffffffffffffffffffffffffffffffff16815260200190815260200160002060008282546111f79190612619565b92505081905550816002600083815260200190815260200160002060006101000a81548173ffffffffffffffffffffffffffffffffffffffff021916908373ffffffffffffffffffffffffffffffffffffffff160217905550808273ffffffffffffffffffffffffffffffffffffffff168473ffffffffffffffffffffffffffffffffffffffff167fddf252ad1be2c89b69c2b068fc378daa952ba7f163c4a11628f55a4df523b3ef60405160405180910390a4505050565b8173ffffffffffffffffffffffffffffffffffffffff168373ffffffffffffffffffffffffffffffffffffffff16141561131f576040517f08c379a000000000000000000000000000000000000000000000000000000000815260040161131690612394565b60405180910390fd5b80600560008573ffffffffffffffffffffffffffffffffffffffff1673ffffffffffffffffffffffffffffffffffffffff16815260200190815260200160002060008473ffffffffffffffffffffffffffffffffffffffff1673ffffffffffffffffffffffffffffffffffffffff16815260200190815260200160002060006101000a81548160ff0219169083151502179055508173ffffffffffffffffffffffffffffffffffffffff168373ffffffffffffffffffffffffffffffffffffffff167f17307eab39ab6107e8899845ad3d59bd9653f200f220920489ca2b5937696c318360405161141091906122bc565b60405180910390a3505050565b611428848484611054565b611434848484846115d0565b611473576040517f08c379a000000000000000000000000000000000000000000000000000000000815260040161146a90612314565b60405180910390fd5b50505050565b606061148482610e49565b6114c3576040517f08c379a00000000000000000000000000000000000000000000000000000000081526004016114ba90612474565b60405180910390fd5b60006006600084815260200190815260200160002080546114e3906127ae565b80601f016020809104026020016040519081016040528092919081815260200182805461150f906127ae565b801561155c5780601f106115315761010080835404028352916020019161155c565b820191906000526020600020905b81548152906001019060200180831161153f57829003601f168201915b50505050509050600061156d611767565b90506000815114156115835781925050506115c6565b6000825111156115b85780826040516020016115a0929190612231565b604051602081830303815290604052925050506115c6565b6115c18461177e565b925050505b919050565b505050565b60006115f18473ffffffffffffffffffffffffffffffffffffffff16611825565b1561175a578373ffffffffffffffffffffffffffffffffffffffff1663150b7a0261161a610eb5565b8786866040518563ffffffff1660e01b815260040161163c9493929190612270565b602060405180830381600087803b15801561165657600080fd5b505af192505050801561168757506040513d601f19601f820116820180604052508101906116849190611e59565b60015b61170a573d80600081146116b7576040519150601f19603f3d011682016040523d82523d6000602084013e6116bc565b606091505b50600081511415611702576040517f08c379a00000000000000000000000000000000000000000000000000000000081526004016116f990612314565b60405180910390fd5b805181602001fd5b63150b7a0260e01b7bffffffffffffffffffffffffffffffffffffffffffffffffffffffff1916817bffffffffffffffffffffffffffffffffffffffffffffffffffffffff19161491505061175f565b600190505b949350505050565b606060405180602001604052806000815250905090565b606061178982610e49565b6117c8576040517f08c379a00000000000000000000000000000000000000000000000000000000081526004016117bf906124d4565b60405180910390fd5b60006117d2611767565b905060008151116117f2576040518060200160405280600081525061181d565b806117fc84611838565b60405160200161180d929190612231565b6040516020818303038152906040525b915050919050565b600080823b905060008111915050919050565b60606000821415611880576040518060400160405280600181526020017f300000000000000000000000000000000000000000000000000000000000000081525090506119e0565b600082905060005b600082146118b257808061189b90612811565b915050600a826118ab919061266f565b9150611888565b60008167ffffffffffffffff8111156118f4577f4e487b7100000000000000000000000000000000000000000000000000000000600052604160045260246000fd5b6040519080825280601f01601f1916602001820160405280156119265781602001600182028036833780820191505090505b5090505b600085146119d95760018261193f91906126a0565b9150600a8561194e919061285a565b603061195a9190612619565b60f81b818381518110611996577f4e487b7100000000000000000000000000000000000000000000000000000000600052603260045260246000fd5b60200101907effffffffffffffffffffffffffffffffffffffffffffffffffffffffffffff1916908160001a905350600a856119d2919061266f565b945061192a565b8093505050505b919050565b8280546119f1906127ae565b90600052602060002090601f016020900481019282611a135760008555611a5a565b82601f10611a2c57805160ff1916838001178555611a5a565b82800160010185558215611a5a579182015b82811115611a59578251825591602001919060010190611a3e565b5b509050611a679190611a6b565b5090565b5b80821115611a84576000816000905550600101611a6c565b5090565b6000611a9b611a9684612574565b61254f565b905082815260208101848484011115611ab357600080fd5b611abe84828561276c565b509392505050565b6000611ad9611ad4846125a5565b61254f565b905082815260208101848484011115611af157600080fd5b611afc84828561276c565b509392505050565b600081359050611b1381612e4b565b92915050565b600081519050611b2881612e4b565b92915050565b600081359050611b3d81612e62565b92915050565b600081519050611b5281612e62565b92915050565b600081359050611b6781612e79565b92915050565b600081519050611b7c81612e79565b92915050565b600082601f830112611b9357600080fd5b8135611ba3848260208601611a88565b91505092915050565b600082601f830112611bbd57600080fd5b8135611bcd848260208601611ac6565b91505092915050565b600081359050611be581612e90565b92915050565b600081519050611bfa81612e90565b92915050565b600060208284031215611c1257600080fd5b6000611c2084828501611b04565b91505092915050565b60008060408385031215611c3c57600080fd5b6000611c4a85828601611b04565b9250506020611c5b85828601611b04565b9150509250929050565b60008060008060008060c08789031215611c7e57600080fd5b6000611c8c89828a01611b19565b9650506020611c9d89828a01611b19565b9550506040611cae89828a01611b19565b9450506060611cbf89828a01611beb565b9350506080611cd089828a01611beb565b92505060a0611ce189828a01611b43565b9150509295509295509295565b600080600060608486031215611d0357600080fd5b6000611d1186828701611b04565b9350506020611d2286828701611b04565b9250506040611d3386828701611bd6565b9150509250925092565b60008060008060808587031215611d5357600080fd5b6000611d6187828801611b04565b9450506020611d7287828801611b04565b9350506040611d8387828801611bd6565b925050606085013567ffffffffffffffff811115611da057600080fd5b611dac87828801611b82565b91505092959194509250565b60008060408385031215611dcb57600080fd5b6000611dd985828601611b04565b9250506020611dea85828601611b2e565b9150509250929050565b60008060408385031215611e0757600080fd5b6000611e1585828601611b04565b9250506020611e2685828601611bd6565b9150509250929050565b600060208284031215611e4257600080fd5b6000611e5084828501611b58565b91505092915050565b600060208284031215611e6b57600080fd5b6000611e7984828501611b6d565b91505092915050565b600060208284031215611e9457600080fd5b6000611ea284828501611bd6565b91505092915050565b60008060408385031215611ebe57600080fd5b6000611ecc85828601611bd6565b925050602083013567ffffffffffffffff811115611ee957600080fd5b611ef585828601611bac565b9150509250929050565b611f08816126d4565b82525050565b611f17816126e6565b82525050565b6000611f28826125d6565b611f3281856125ec565b9350611f4281856020860161277b565b611f4b81612947565b840191505092915050565b611f5f81612748565b82525050565b6000611f70826125e1565b611f7a81856125fd565b9350611f8a81856020860161277b565b611f9381612947565b840191505092915050565b6000611fa9826125e1565b611fb3818561260e565b9350611fc381856020860161277b565b80840191505092915050565b6000611fdc6032836125fd565b9150611fe782612958565b604082019050919050565b6000611fff601c836125fd565b915061200a826129a7565b602082019050919050565b60006120226043836125fd565b915061202d826129d0565b606082019050919050565b60006120456024836125fd565b915061205082612a45565b604082019050919050565b60006120686019836125fd565b915061207382612a94565b602082019050919050565b600061208b602c836125fd565b915061209682612abd565b604082019050919050565b60006120ae6038836125fd565b91506120b982612b0c565b604082019050919050565b60006120d1602a836125fd565b91506120dc82612b5b565b604082019050919050565b60006120f46029836125fd565b91506120ff82612baa565b604082019050919050565b6000612117602e836125fd565b915061212282612bf9565b604082019050919050565b600061213a6020836125fd565b915061214582612c48565b602082019050919050565b600061215d6031836125fd565b915061216882612c71565b604082019050919050565b6000612180602c836125fd565b915061218b82612cc0565b604082019050919050565b60006121a36029836125fd565b91506121ae82612d0f565b604082019050919050565b60006121c6602f836125fd565b91506121d182612d5e565b604082019050919050565b60006121e96021836125fd565b91506121f482612dad565b604082019050919050565b600061220c6031836125fd565b915061221782612dfc565b604082019050919050565b61222b8161273e565b82525050565b600061223d8285611f9e565b91506122498284611f9e565b91508190509392505050565b600060208201905061226a6000830184611eff565b92915050565b60006080820190506122856000830187611eff565b6122926020830186611eff565b61229f6040830185612222565b81810360608301526122b18184611f1d565b905095945050505050565b60006020820190506122d16000830184611f0e565b92915050565b60006020820190506122ec6000830184611f56565b92915050565b6000602082019050818103600083015261230c8184611f65565b905092915050565b6000602082019050818103600083015261232d81611fcf565b9050919050565b6000602082019050818103600083015261234d81611ff2565b9050919050565b6000602082019050818103600083015261236d81612015565b9050919050565b6000602082019050818103600083015261238d81612038565b9050919050565b600060208201905081810360008301526123ad8161205b565b9050919050565b600060208201905081810360008301526123cd8161207e565b9050919050565b600060208201905081810360008301526123ed816120a1565b9050919050565b6000602082019050818103600083015261240d816120c4565b9050919050565b6000602082019050818103600083015261242d816120e7565b9050919050565b6000602082019050818103600083015261244d8161210a565b9050919050565b6000602082019050818103600083015261246d8161212d565b9050919050565b6000602082019050818103600083015261248d81612150565b9050919050565b600060208201905081810360008301526124ad81612173565b9050919050565b600060208201905081810360008301526124cd81612196565b9050919050565b600060208201905081810360008301526124ed816121b9565b9050919050565b6000602082019050818103600083015261250d816121dc565b9050919050565b6000602082019050818103600083015261252d816121ff565b9050919050565b60006020820190506125496000830184612222565b92915050565b600061255961256a565b905061256582826127e0565b919050565b6000604051905090565b600067ffffffffffffffff82111561258f5761258e612918565b5b61259882612947565b9050602081019050919050565b600067ffffffffffffffff8211156125c0576125bf612918565b5b6125c982612947565b9050602081019050919050565b600081519050919050565b600081519050919050565b600082825260208201905092915050565b600082825260208201905092915050565b600081905092915050565b60006126248261273e565b915061262f8361273e565b9250827fffffffffffffffffffffffffffffffffffffffffffffffffffffffffffffffff038211156126645761266361288b565b5b828201905092915050565b600061267a8261273e565b91506126858361273e565b925082612695576126946128ba565b5b828204905092915050565b60006126ab8261273e565b91506126b68361273e565b9250828210156126c9576126c861288b565b5b828203905092915050565b60006126df8261271e565b9050919050565b60008115159050919050565b60007fffffffff0000000000000000000000000000000000000000000000000000000082169050919050565b600073ffffffffffffffffffffffffffffffffffffffff82169050919050565b6000819050919050565b60006127538261275a565b9050919050565b60006127658261271e565b9050919050565b82818337600083830152505050565b60005b8381101561279957808201518184015260208101905061277e565b838111156127a8576000848401525b50505050565b600060028204905060018216806127c657607f821691505b602082108114156127da576127d96128e9565b5b50919050565b6127e982612947565b810181811067ffffffffffffffff8211171561280857612807612918565b5b80604052505050565b600061281c8261273e565b91507fffffffffffffffffffffffffffffffffffffffffffffffffffffffffffffffff82141561284f5761284e61288b565b5b600182019050919050565b60006128658261273e565b91506128708361273e565b9250826128805761287f6128ba565b5b828206905092915050565b7f4e487b7100000000000000000000000000000000000000000000000000000000600052601160045260246000fd5b7f4e487b7100000000000000000000000000000000000000000000000000000000600052601260045260246000fd5b7f4e487b7100000000000000000000000000000000000000000000000000000000600052602260045260246000fd5b7f4e487b7100000000000000000000000000000000000000000000000000000000600052604160045260246000fd5b6000601f19601f8301169050919050565b7f4552433732313a207472616e7366657220746f206e6f6e20455243373231526560008201527f63656976657220696d706c656d656e7465720000000000000000000000000000602082015250565b7f4552433732313a20746f6b656e20616c7265616479206d696e74656400000000600082015250565b7f6d73672e73656e64657220646f6573206e6f74206f776e20746865206d65746160008201527f646174612066726f6d207468652073616c65206f66207468697320746f6b656e60208201527f2049440000000000000000000000000000000000000000000000000000000000604082015250565b7f4552433732313a207472616e7366657220746f20746865207a65726f2061646460008201527f7265737300000000000000000000000000000000000000000000000000000000602082015250565b7f4552433732313a20617070726f766520746f2063616c6c657200000000000000600082015250565b7f4552433732313a206f70657261746f7220717565727920666f72206e6f6e657860008201527f697374656e7420746f6b656e0000000000000000000000000000000000000000602082015250565b7f4552433732313a20617070726f76652063616c6c6572206973206e6f74206f7760008201527f6e6572206e6f7220617070726f76656420666f7220616c6c0000000000000000602082015250565b7f4552433732313a2062616c616e636520717565727920666f7220746865207a6560008201527f726f206164647265737300000000000000000000000000000000000000000000602082015250565b7f4552433732313a206f776e657220717565727920666f72206e6f6e657869737460008201527f656e7420746f6b656e0000000000000000000000000000000000000000000000602082015250565b7f45524337323155524953746f726167653a2055524920736574206f66206e6f6e60008201527f6578697374656e7420746f6b656e000000000000000000000000000000000000602082015250565b7f4552433732313a206d696e7420746f20746865207a65726f2061646472657373600082015250565b7f45524337323155524953746f726167653a2055524920717565727920666f722060008201527f6e6f6e6578697374656e7420746f6b656e000000000000000000000000000000602082015250565b7f4552433732313a20617070726f76656420717565727920666f72206e6f6e657860008201527f697374656e7420746f6b656e0000000000000000000000000000000000000000602082015250565b7f4552433732313a207472616e73666572206f6620746f6b656e2074686174206960008201527f73206e6f74206f776e0000000000000000000000000000000000000000000000602082015250565b7f4552433732314d657461646174613a2055524920717565727920666f72206e6f60008201527f6e6578697374656e7420746f6b656e0000000000000000000000000000000000602082015250565b7f4552433732313a20617070726f76616c20746f2063757272656e74206f776e6560008201527f7200000000000000000000000000000000000000000000000000000000000000602082015250565b7f4552433732313a207472616e736665722063616c6c6572206973206e6f74206f60008201527f776e6572206e6f7220617070726f766564000000000000000000000000000000602082015250565b612e54816126d4565b8114612e5f57600080fd5b50565b612e6b816126e6565b8114612e7657600080fd5b50565b612e82816126f2565b8114612e8d57600080fd5b50565b612e998161273e565b8114612ea457600080fd5b5056fea2646970667358221220366538d10d588f64a054e2557b97b49dca393ff9c63023f9c9a5def99a6d99aa64736f6c63430008040033",
  "devdoc": {
    "kind": "dev",
    "methods": {
      "approve(address,uint256)": {
        "details": "See {IERC721-approve}."
      },
      "balanceOf(address)": {
        "details": "See {IERC721-balanceOf}."
      },
      "getApproved(uint256)": {
        "details": "See {IERC721-getApproved}."
      },
      "isApprovedForAll(address,address)": {
        "details": "See {IERC721-isApprovedForAll}."
      },
      "name()": {
        "details": "See {IERC721Metadata-name}."
      },
      "ownerOf(uint256)": {
        "details": "See {IERC721-ownerOf}."
      },
      "safeTransferFrom(address,address,uint256)": {
        "details": "See {IERC721-safeTransferFrom}."
      },
      "safeTransferFrom(address,address,uint256,bytes)": {
        "details": "See {IERC721-safeTransferFrom}."
      },
      "setApprovalForAll(address,bool)": {
        "details": "See {IERC721-setApprovalForAll}."
      },
      "supportsInterface(bytes4)": {
        "details": "See {IERC165-supportsInterface}."
      },
      "symbol()": {
        "details": "See {IERC721Metadata-symbol}."
      },
      "transferFrom(address,address,uint256)": {
        "details": "See {IERC721-transferFrom}."
      }
    },
    "version": 1
  },
  "userdoc": {
    "kind": "user",
    "methods": {},
    "notice": "This contract is for the NFTHack 2022 ETHGlobal hackathon. Developed in this repo: https://github.com/onionpeel/nft-hackathon-2022",
    "version": 1
  },
  "storageLayout": {
    "storage": [
      {
        "astId": 25,
        "contract": "contracts/RecursiveArtNFT.sol:RecursiveArtNFT",
        "label": "_name",
        "offset": 0,
        "slot": "0",
        "type": "t_string_storage"
      },
      {
        "astId": 27,
        "contract": "contracts/RecursiveArtNFT.sol:RecursiveArtNFT",
        "label": "_symbol",
        "offset": 0,
        "slot": "1",
        "type": "t_string_storage"
      },
      {
        "astId": 31,
        "contract": "contracts/RecursiveArtNFT.sol:RecursiveArtNFT",
        "label": "_owners",
        "offset": 0,
        "slot": "2",
        "type": "t_mapping(t_uint256,t_address)"
      },
      {
        "astId": 35,
        "contract": "contracts/RecursiveArtNFT.sol:RecursiveArtNFT",
        "label": "_balances",
        "offset": 0,
        "slot": "3",
        "type": "t_mapping(t_address,t_uint256)"
      },
      {
        "astId": 39,
        "contract": "contracts/RecursiveArtNFT.sol:RecursiveArtNFT",
        "label": "_tokenApprovals",
        "offset": 0,
        "slot": "4",
        "type": "t_mapping(t_uint256,t_address)"
      },
      {
        "astId": 45,
        "contract": "contracts/RecursiveArtNFT.sol:RecursiveArtNFT",
        "label": "_operatorApprovals",
        "offset": 0,
        "slot": "5",
        "type": "t_mapping(t_address,t_mapping(t_address,t_bool))"
      },
      {
        "astId": 977,
        "contract": "contracts/RecursiveArtNFT.sol:RecursiveArtNFT",
        "label": "_tokenURIs",
        "offset": 0,
        "slot": "6",
        "type": "t_mapping(t_uint256,t_string_storage)"
      },
      {
        "astId": 1770,
        "contract": "contracts/RecursiveArtNFT.sol:RecursiveArtNFT",
        "label": "recursiveTokenId",
        "offset": 0,
        "slot": "7",
        "type": "t_struct(Counter)1444_storage"
      },
      {
        "astId": 1773,
        "contract": "contracts/RecursiveArtNFT.sol:RecursiveArtNFT",
        "label": "recursiveExchange",
        "offset": 0,
        "slot": "8",
        "type": "t_contract(RecursiveExchange)2260"
      }
    ],
    "types": {
      "t_address": {
        "encoding": "inplace",
        "label": "address",
        "numberOfBytes": "20"
      },
      "t_bool": {
        "encoding": "inplace",
        "label": "bool",
        "numberOfBytes": "1"
      },
      "t_contract(RecursiveExchange)2260": {
        "encoding": "inplace",
        "label": "contract RecursiveExchange",
        "numberOfBytes": "20"
      },
      "t_mapping(t_address,t_bool)": {
        "encoding": "mapping",
        "key": "t_address",
        "label": "mapping(address => bool)",
        "numberOfBytes": "32",
        "value": "t_bool"
      },
      "t_mapping(t_address,t_mapping(t_address,t_bool))": {
        "encoding": "mapping",
        "key": "t_address",
        "label": "mapping(address => mapping(address => bool))",
        "numberOfBytes": "32",
        "value": "t_mapping(t_address,t_bool)"
      },
      "t_mapping(t_address,t_uint256)": {
        "encoding": "mapping",
        "key": "t_address",
        "label": "mapping(address => uint256)",
        "numberOfBytes": "32",
        "value": "t_uint256"
      },
      "t_mapping(t_uint256,t_address)": {
        "encoding": "mapping",
        "key": "t_uint256",
        "label": "mapping(uint256 => address)",
        "numberOfBytes": "32",
        "value": "t_address"
      },
      "t_mapping(t_uint256,t_string_storage)": {
        "encoding": "mapping",
        "key": "t_uint256",
        "label": "mapping(uint256 => string)",
        "numberOfBytes": "32",
        "value": "t_string_storage"
      },
      "t_string_storage": {
        "encoding": "bytes",
        "label": "string",
        "numberOfBytes": "32"
      },
      "t_struct(Counter)1444_storage": {
        "encoding": "inplace",
        "label": "struct Counters.Counter",
        "members": [
          {
            "astId": 1443,
            "contract": "contracts/RecursiveArtNFT.sol:RecursiveArtNFT",
            "label": "_value",
            "offset": 0,
            "slot": "0",
            "type": "t_uint256"
          }
        ],
        "numberOfBytes": "32"
      },
      "t_uint256": {
        "encoding": "inplace",
        "label": "uint256",
        "numberOfBytes": "32"
      }
    }
  }
}