{
  "address": "0xF7637b9628369AcFAC832654D69462CE5b4Ff689",
  "abi": [
    {
      "anonymous": false,
      "inputs": [
        {
          "indexed": true,
          "internalType": "address",
          "name": "beneficiary",
          "type": "address"
        },
        {
          "indexed": false,
          "internalType": "uint256",
          "name": "amount",
          "type": "uint256"
        }
      ],
      "name": "BalanceWithdrawn",
      "type": "event"
    },
    {
      "anonymous": false,
      "inputs": [
        {
          "indexed": true,
          "internalType": "uint256",
          "name": "offeringId",
          "type": "uint256"
        },
        {
          "indexed": true,
          "internalType": "address",
          "name": "hostContract",
          "type": "address"
        },
        {
          "indexed": true,
          "internalType": "address",
          "name": "buyer",
          "type": "address"
        },
        {
          "indexed": false,
          "internalType": "address",
          "name": "seller",
          "type": "address"
        },
        {
          "indexed": false,
          "internalType": "uint256",
          "name": "tokenId",
          "type": "uint256"
        },
        {
          "indexed": false,
          "internalType": "uint256",
          "name": "price",
          "type": "uint256"
        }
      ],
      "name": "OfferingClosed",
      "type": "event"
    },
    {
      "anonymous": false,
      "inputs": [
        {
          "indexed": true,
          "internalType": "uint256",
          "name": "offeringId",
          "type": "uint256"
        },
        {
          "indexed": true,
          "internalType": "address",
          "name": "hostContract",
          "type": "address"
        },
        {
          "indexed": true,
          "internalType": "address",
          "name": "seller",
          "type": "address"
        },
        {
          "indexed": false,
          "internalType": "uint256",
          "name": "tokenId",
          "type": "uint256"
        },
        {
          "indexed": false,
          "internalType": "uint256",
          "name": "price",
          "type": "uint256"
        },
        {
          "indexed": false,
          "internalType": "string",
          "name": "uri",
          "type": "string"
        }
      ],
      "name": "OfferingPlaced",
      "type": "event"
    },
    {
      "inputs": [
        {
          "internalType": "address",
          "name": "",
          "type": "address"
        }
      ],
      "name": "balances",
      "outputs": [
        {
          "internalType": "uint256",
          "name": "",
          "type": "uint256"
        }
      ],
      "stateMutability": "view",
      "type": "function"
    },
    {
      "inputs": [
        {
          "internalType": "uint256",
          "name": "_offeringId",
          "type": "uint256"
        }
      ],
      "name": "closeOffering",
      "outputs": [],
      "stateMutability": "payable",
      "type": "function"
    },
    {
      "inputs": [],
      "name": "offeringId",
      "outputs": [
        {
          "internalType": "uint256",
          "name": "_value",
          "type": "uint256"
        }
      ],
      "stateMutability": "view",
      "type": "function"
    },
    {
      "inputs": [
        {
          "internalType": "uint256",
          "name": "",
          "type": "uint256"
        }
      ],
      "name": "offeringRegistry",
      "outputs": [
        {
          "internalType": "address",
          "name": "seller",
          "type": "address"
        },
        {
          "internalType": "address",
          "name": "buyer",
          "type": "address"
        },
        {
          "internalType": "address",
          "name": "hostContract",
          "type": "address"
        },
        {
          "internalType": "uint256",
          "name": "tokenId",
          "type": "uint256"
        },
        {
          "internalType": "uint256",
          "name": "price",
          "type": "uint256"
        },
        {
          "internalType": "bool",
          "name": "closed",
          "type": "bool"
        }
      ],
      "stateMutability": "view",
      "type": "function"
    },
    {
      "inputs": [
        {
          "internalType": "address",
          "name": "_hostContract",
          "type": "address"
        },
        {
          "internalType": "uint256",
          "name": "_tokenId",
          "type": "uint256"
        },
        {
          "internalType": "uint256",
          "name": "_price",
          "type": "uint256"
        }
      ],
      "name": "placeOffering",
      "outputs": [],
      "stateMutability": "nonpayable",
      "type": "function"
    },
    {
      "inputs": [
        {
          "internalType": "uint256",
          "name": "_offeringId",
          "type": "uint256"
        }
      ],
      "name": "revokeOffering",
      "outputs": [],
      "stateMutability": "nonpayable",
      "type": "function"
    },
    {
      "inputs": [
        {
          "internalType": "address",
          "name": "_address",
          "type": "address"
        }
      ],
      "name": "viewBalances",
      "outputs": [
        {
          "internalType": "uint256",
          "name": "",
          "type": "uint256"
        }
      ],
      "stateMutability": "view",
      "type": "function"
    },
    {
      "inputs": [
        {
          "internalType": "uint256",
          "name": "_offeringId",
          "type": "uint256"
        }
      ],
      "name": "viewOfferingNFT",
      "outputs": [
        {
          "internalType": "address",
          "name": "",
          "type": "address"
        },
        {
          "internalType": "address",
          "name": "",
          "type": "address"
        },
        {
          "internalType": "address",
          "name": "",
          "type": "address"
        },
        {
          "internalType": "uint256",
          "name": "",
          "type": "uint256"
        },
        {
          "internalType": "uint256",
          "name": "",
          "type": "uint256"
        },
        {
          "internalType": "bool",
          "name": "",
          "type": "bool"
        }
      ],
      "stateMutability": "view",
      "type": "function"
    },
    {
      "inputs": [],
      "name": "withdrawBalance",
      "outputs": [],
      "stateMutability": "nonpayable",
      "type": "function"
    }
  ],
  "transactionHash": "0x4c6f5e0ec582b503e15065beb7cfe849526d179b461ae3fe7ef70a5403ef7a02",
  "args": [],
  "numDeployments": 1,
  "solcInputHash": "2b18659dafb598b36e9bd51decbfa183",
  "bytecode": "0x608060405234801561001057600080fd5b5061180e806100206000396000f3fe6080604052600436106100865760003560e01c80634b5822b1116100595780634b5822b11461015c5780635fd8c71014610199578063603fe2d6146101b057806375915634146101f2578063a1d4646f1461021d57610086565b8063188071e61461008b5780631d4822c7146100b457806327e235e3146100f657806334ed994d14610133575b600080fd5b34801561009757600080fd5b506100b260048036038101906100ad9190610f88565b610239565b005b3480156100c057600080fd5b506100db60048036038101906100d69190611018565b610548565b6040516100ed969594939291906111d4565b60405180910390f35b34801561010257600080fd5b5061011d60048036038101906101189190610f36565b61065d565b60405161012a9190611383565b60405180910390f35b34801561013f57600080fd5b5061015a60048036038101906101559190611018565b610675565b005b34801561016857600080fd5b50610183600480360381019061017e9190610f36565b61074a565b6040516101909190611383565b60405180910390f35b3480156101a557600080fd5b506101ae610793565b005b3480156101bc57600080fd5b506101d760048036038101906101d29190611018565b6108f9565b6040516101e9969594939291906111d4565b60405180910390f35b3480156101fe57600080fd5b506102076109a2565b6040516102149190611383565b60405180910390f35b61023760048036038101906102329190611018565b6109ae565b005b8273ffffffffffffffffffffffffffffffffffffffff16636352211e836040518263ffffffff1660e01b81526004016102729190611383565b60206040518083038186803b15801561028a57600080fd5b505afa15801561029e573d6000803e3d6000fd5b505050506040513d601f19601f820116820180604052508101906102c29190610f5f565b73ffffffffffffffffffffffffffffffffffffffff163373ffffffffffffffffffffffffffffffffffffffff161461032f576040517f08c379a000000000000000000000000000000000000000000000000000000000815260040161032690611303565b60405180910390fd5b6103396000610d77565b33600160006103486000610d8d565b815260200190815260200160002060000160006101000a81548173ffffffffffffffffffffffffffffffffffffffff021916908373ffffffffffffffffffffffffffffffffffffffff16021790555082600160006103a66000610d8d565b815260200190815260200160002060020160006101000a81548173ffffffffffffffffffffffffffffffffffffffff021916908373ffffffffffffffffffffffffffffffffffffffff16021790555081600160006104046000610d8d565b81526020019081526020016000206003018190555080600160006104286000610d8d565b81526020019081526020016000206004018190555060008373ffffffffffffffffffffffffffffffffffffffff1663c87b56dd846040518263ffffffff1660e01b81526004016104789190611383565b60006040518083038186803b15801561049057600080fd5b505afa1580156104a4573d6000803e3d6000fd5b505050506040513d6000823e3d601f19601f820116820180604052508101906104cd9190610fd7565b90503373ffffffffffffffffffffffffffffffffffffffff168473ffffffffffffffffffffffffffffffffffffffff166105076000610d8d565b7ff07fef31e83c1517205ed12eb50f5ee45ee97ec594a4d539fca02f7efa5a8d0386868660405161053a9392919061139e565b60405180910390a450505050565b6000806000806000806001600088815260200190815260200160002060000160009054906101000a900473ffffffffffffffffffffffffffffffffffffffff166001600089815260200190815260200160002060010160009054906101000a900473ffffffffffffffffffffffffffffffffffffffff16600160008a815260200190815260200160002060020160009054906101000a900473ffffffffffffffffffffffffffffffffffffffff16600160008b815260200190815260200160002060030154600160008c815260200190815260200160002060040154600160008d815260200190815260200160002060050160009054906101000a900460ff1695509550955095509550955091939550919395565b60026020528060005260406000206000915090505481565b6001600082815260200190815260200160002060000160009054906101000a900473ffffffffffffffffffffffffffffffffffffffff1673ffffffffffffffffffffffffffffffffffffffff163373ffffffffffffffffffffffffffffffffffffffff1614610719576040517f08c379a000000000000000000000000000000000000000000000000000000000815260040161071090611363565b60405180910390fd5b600180600083815260200190815260200160002060050160006101000a81548160ff02191690831515021790555050565b6000600260008373ffffffffffffffffffffffffffffffffffffffff1673ffffffffffffffffffffffffffffffffffffffff168152602001908152602001600020549050919050565b6000600260003373ffffffffffffffffffffffffffffffffffffffff1673ffffffffffffffffffffffffffffffffffffffff1681526020019081526020016000205411610815576040517f08c379a000000000000000000000000000000000000000000000000000000000815260040161080c906112a3565b60405180910390fd5b6000600260003373ffffffffffffffffffffffffffffffffffffffff1673ffffffffffffffffffffffffffffffffffffffff1681526020019081526020016000205490506000600260003373ffffffffffffffffffffffffffffffffffffffff1673ffffffffffffffffffffffffffffffffffffffff168152602001908152602001600020819055506108a83382610d9b565b3373ffffffffffffffffffffffffffffffffffffffff167fddc398b321237a8d40ac914388309c2f52a08c134e4dc4ce61e32f57cb7d80f1826040516108ee9190611383565b60405180910390a250565b60016020528060005260406000206000915090508060000160009054906101000a900473ffffffffffffffffffffffffffffffffffffffff16908060010160009054906101000a900473ffffffffffffffffffffffffffffffffffffffff16908060020160009054906101000a900473ffffffffffffffffffffffffffffffffffffffff16908060030154908060040154908060050160009054906101000a900460ff16905086565b60008060000154905081565b6001600082815260200190815260200160002060040154341015610a07576040517f08c379a00000000000000000000000000000000000000000000000000000000081526004016109fe90611323565b60405180910390fd5b600115156001600083815260200190815260200160002060050160009054906101000a900460ff1615151415610a72576040517f08c379a0000000000000000000000000000000000000000000000000000000008152600401610a6990611343565b60405180910390fd5b336001600083815260200190815260200160002060010160006101000a81548173ffffffffffffffffffffffffffffffffffffffff021916908373ffffffffffffffffffffffffffffffffffffffff160217905550600180600083815260200190815260200160002060050160006101000a81548160ff02191690831515021790555034600260006001600085815260200190815260200160002060000160009054906101000a900473ffffffffffffffffffffffffffffffffffffffff1673ffffffffffffffffffffffffffffffffffffffff1673ffffffffffffffffffffffffffffffffffffffff1681526020019081526020016000206000828254610b7a9190611459565b925050819055506001600082815260200190815260200160002060020160009054906101000a900473ffffffffffffffffffffffffffffffffffffffff1673ffffffffffffffffffffffffffffffffffffffff166342842e0e6001600084815260200190815260200160002060000160009054906101000a900473ffffffffffffffffffffffffffffffffffffffff163360016000868152602001908152602001600020600301546040518463ffffffff1660e01b8152600401610c4093929190611235565b600060405180830381600087803b158015610c5a57600080fd5b505af1158015610c6e573d6000803e3d6000fd5b505050503373ffffffffffffffffffffffffffffffffffffffff166001600083815260200190815260200160002060020160009054906101000a900473ffffffffffffffffffffffffffffffffffffffff1673ffffffffffffffffffffffffffffffffffffffff16827fa87d1a8cac444d47cce9301cabff9d9f50f5d695ff73ca059b8e6149e8d96a9d6001600086815260200190815260200160002060000160009054906101000a900473ffffffffffffffffffffffffffffffffffffffff1660016000878152602001908152602001600020600301546001600088815260200190815260200160002060040154604051610d6c9392919061126c565b60405180910390a450565b6001816000016000828254019250508190555050565b600081600001549050919050565b80471015610dde576040517f08c379a0000000000000000000000000000000000000000000000000000000008152600401610dd5906112e3565b60405180910390fd5b60008273ffffffffffffffffffffffffffffffffffffffff1682604051610e04906111bf565b60006040518083038185875af1925050503d8060008114610e41576040519150601f19603f3d011682016040523d82523d6000602084013e610e46565b606091505b5050905080610e8a576040517f08c379a0000000000000000000000000000000000000000000000000000000008152600401610e81906112c3565b60405180910390fd5b505050565b6000610ea2610e9d84611401565b6113dc565b905082815260208101848484011115610eba57600080fd5b610ec58482856114f7565b509392505050565b600081359050610edc816117aa565b92915050565b600081519050610ef1816117aa565b92915050565b600082601f830112610f0857600080fd5b8151610f18848260208601610e8f565b91505092915050565b600081359050610f30816117c1565b92915050565b600060208284031215610f4857600080fd5b6000610f5684828501610ecd565b91505092915050565b600060208284031215610f7157600080fd5b6000610f7f84828501610ee2565b91505092915050565b600080600060608486031215610f9d57600080fd5b6000610fab86828701610ecd565b9350506020610fbc86828701610f21565b9250506040610fcd86828701610f21565b9150509250925092565b600060208284031215610fe957600080fd5b600082015167ffffffffffffffff81111561100357600080fd5b61100f84828501610ef7565b91505092915050565b60006020828403121561102a57600080fd5b600061103884828501610f21565b91505092915050565b61104a816114af565b82525050565b611059816114c1565b82525050565b600061106a82611432565b6110748185611448565b93506110848185602086016114f7565b61108d816115b9565b840191505092915050565b60006110a5602683611448565b91506110b0826115ca565b604082019050919050565b60006110c8603a83611448565b91506110d382611619565b604082019050919050565b60006110eb601d83611448565b91506110f682611668565b602082019050919050565b600061110e604683611448565b915061111982611691565b606082019050919050565b6000611131601783611448565b915061113c82611706565b602082019050919050565b600061115460008361143d565b915061115f8261172f565b600082019050919050565b6000611177601283611448565b915061118282611732565b602082019050919050565b600061119a602a83611448565b91506111a58261175b565b604082019050919050565b6111b9816114ed565b82525050565b60006111ca82611147565b9150819050919050565b600060c0820190506111e96000830189611041565b6111f66020830188611041565b6112036040830187611041565b61121060608301866111b0565b61121d60808301856111b0565b61122a60a0830184611050565b979650505050505050565b600060608201905061124a6000830186611041565b6112576020830185611041565b61126460408301846111b0565b949350505050565b60006060820190506112816000830186611041565b61128e60208301856111b0565b61129b60408301846111b0565b949350505050565b600060208201905081810360008301526112bc81611098565b9050919050565b600060208201905081810360008301526112dc816110bb565b9050919050565b600060208201905081810360008301526112fc816110de565b9050919050565b6000602082019050818103600083015261131c81611101565b9050919050565b6000602082019050818103600083015261133c81611124565b9050919050565b6000602082019050818103600083015261135c8161116a565b9050919050565b6000602082019050818103600083015261137c8161118d565b9050919050565b600060208201905061139860008301846111b0565b92915050565b60006060820190506113b360008301866111b0565b6113c060208301856111b0565b81810360408301526113d2818461105f565b9050949350505050565b60006113e66113f7565b90506113f2828261152a565b919050565b6000604051905090565b600067ffffffffffffffff82111561141c5761141b61158a565b5b611425826115b9565b9050602081019050919050565b600081519050919050565b600081905092915050565b600082825260208201905092915050565b6000611464826114ed565b915061146f836114ed565b9250827fffffffffffffffffffffffffffffffffffffffffffffffffffffffffffffffff038211156114a4576114a361155b565b5b828201905092915050565b60006114ba826114cd565b9050919050565b60008115159050919050565b600073ffffffffffffffffffffffffffffffffffffffff82169050919050565b6000819050919050565b60005b838110156115155780820151818401526020810190506114fa565b83811115611524576000848401525b50505050565b611533826115b9565b810181811067ffffffffffffffff821117156115525761155161158a565b5b80604052505050565b7f4e487b7100000000000000000000000000000000000000000000000000000000600052601160045260246000fd5b7f4e487b7100000000000000000000000000000000000000000000000000000000600052604160045260246000fd5b6000601f19601f8301169050919050565b7f596f7520646f6e2774206861766520616e792062616c616e636520746f20776960008201527f7468647261770000000000000000000000000000000000000000000000000000602082015250565b7f416464726573733a20756e61626c6520746f2073656e642076616c75652c207260008201527f6563697069656e74206d61792068617665207265766572746564000000000000602082015250565b7f416464726573733a20696e73756666696369656e742062616c616e6365000000600082015250565b7f6d73672e73656e64657220646f6573206e6f74206f776e2074686520746f6b6560008201527f6e2069642c207468657265666f72652063616e6e6f742073656c6c207468617460208201527f20746f6b656e0000000000000000000000000000000000000000000000000000604082015250565b7f4e6f7420656e6f7567682066756e647320746f20627579000000000000000000600082015250565b50565b7f4f66666572696e6720697320636c6f7365640000000000000000000000000000600082015250565b7f6d73672e73656e646572206973206e6f74207468652073656c6c6572206f662060008201527f7468697320746f6b656e00000000000000000000000000000000000000000000602082015250565b6117b3816114af565b81146117be57600080fd5b50565b6117ca816114ed565b81146117d557600080fd5b5056fea26469706673582212204365f30515f6ea5c66969a16ecc2276038bb0ff9ef95a5747e9bb25308b2a75e64736f6c63430008040033",
  "devdoc": {
    "kind": "dev",
    "methods": {},
    "version": 1
  },
  "userdoc": {
    "kind": "user",
    "methods": {},
    "notice": "This contract is for the NFTHack ETHGlobal hackathon. Developed in this repo: https://github.com/onionpeel/nft-hackathon-2022 It is a modification of MarketPlace.sol found here: https://github.com/DanielMoralisSamples/25_NFT_MARKET_PLACE/blob/master/contracts/market_place.sol",
    "version": 1
  },
  "storageLayout": {
    "storage": [
      {
        "astId": 1916,
        "contract": "contracts/RecursiveExchange.sol:RecursiveExchange",
        "label": "offeringId",
        "offset": 0,
        "slot": "0",
        "type": "t_struct(Counter)1444_storage"
      },
      {
        "astId": 1934,
        "contract": "contracts/RecursiveExchange.sol:RecursiveExchange",
        "label": "offeringRegistry",
        "offset": 0,
        "slot": "1",
        "type": "t_mapping(t_uint256,t_struct(Offering)1929_storage)"
      },
      {
        "astId": 1938,
        "contract": "contracts/RecursiveExchange.sol:RecursiveExchange",
        "label": "balances",
        "offset": 0,
        "slot": "2",
        "type": "t_mapping(t_address,t_uint256)"
      }
    ],
    "types": {
      "t_address": {
        "encoding": "inplace",
        "label": "address",
        "numberOfBytes": "20"
      },
      "t_bool": {
        "encoding": "inplace",
        "label": "bool",
        "numberOfBytes": "1"
      },
      "t_mapping(t_address,t_uint256)": {
        "encoding": "mapping",
        "key": "t_address",
        "label": "mapping(address => uint256)",
        "numberOfBytes": "32",
        "value": "t_uint256"
      },
      "t_mapping(t_uint256,t_struct(Offering)1929_storage)": {
        "encoding": "mapping",
        "key": "t_uint256",
        "label": "mapping(uint256 => struct RecursiveExchange.Offering)",
        "numberOfBytes": "32",
        "value": "t_struct(Offering)1929_storage"
      },
      "t_struct(Counter)1444_storage": {
        "encoding": "inplace",
        "label": "struct Counters.Counter",
        "members": [
          {
            "astId": 1443,
            "contract": "contracts/RecursiveExchange.sol:RecursiveExchange",
            "label": "_value",
            "offset": 0,
            "slot": "0",
            "type": "t_uint256"
          }
        ],
        "numberOfBytes": "32"
      },
      "t_struct(Offering)1929_storage": {
        "encoding": "inplace",
        "label": "struct RecursiveExchange.Offering",
        "members": [
          {
            "astId": 1918,
            "contract": "contracts/RecursiveExchange.sol:RecursiveExchange",
            "label": "seller",
            "offset": 0,
            "slot": "0",
            "type": "t_address"
          },
          {
            "astId": 1920,
            "contract": "contracts/RecursiveExchange.sol:RecursiveExchange",
            "label": "buyer",
            "offset": 0,
            "slot": "1",
            "type": "t_address"
          },
          {
            "astId": 1922,
            "contract": "contracts/RecursiveExchange.sol:RecursiveExchange",
            "label": "hostContract",
            "offset": 0,
            "slot": "2",
            "type": "t_address"
          },
          {
            "astId": 1924,
            "contract": "contracts/RecursiveExchange.sol:RecursiveExchange",
            "label": "tokenId",
            "offset": 0,
            "slot": "3",
            "type": "t_uint256"
          },
          {
            "astId": 1926,
            "contract": "contracts/RecursiveExchange.sol:RecursiveExchange",
            "label": "price",
            "offset": 0,
            "slot": "4",
            "type": "t_uint256"
          },
          {
            "astId": 1928,
            "contract": "contracts/RecursiveExchange.sol:RecursiveExchange",
            "label": "closed",
            "offset": 0,
            "slot": "5",
            "type": "t_bool"
          }
        ],
        "numberOfBytes": "192"
      },
      "t_uint256": {
        "encoding": "inplace",
        "label": "uint256",
        "numberOfBytes": "32"
      }
    }
  }
}