{
  "address": "0x1D4882c35383f01C13087aD0df2De5D1d78769ba",
  "abi": [
    {
      "inputs": [],
      "stateMutability": "nonpayable",
      "type": "constructor"
    },
    {
      "anonymous": false,
      "inputs": [
        {
          "indexed": true,
          "internalType": "address",
          "name": "owner",
          "type": "address"
        },
        {
          "indexed": true,
          "internalType": "address",
          "name": "approved",
          "type": "address"
        },
        {
          "indexed": true,
          "internalType": "uint256",
          "name": "tokenId",
          "type": "uint256"
        }
      ],
      "name": "Approval",
      "type": "event"
    },
    {
      "anonymous": false,
      "inputs": [
        {
          "indexed": true,
          "internalType": "address",
          "name": "owner",
          "type": "address"
        },
        {
          "indexed": true,
          "internalType": "address",
          "name": "operator",
          "type": "address"
        },
        {
          "indexed": false,
          "internalType": "bool",
          "name": "approved",
          "type": "bool"
        }
      ],
      "name": "ApprovalForAll",
      "type": "event"
    },
    {
      "anonymous": false,
      "inputs": [
        {
          "indexed": true,
          "internalType": "address",
          "name": "previousOwner",
          "type": "address"
        },
        {
          "indexed": true,
          "internalType": "address",
          "name": "newOwner",
          "type": "address"
        }
      ],
      "name": "OwnershipTransferred",
      "type": "event"
    },
    {
      "anonymous": false,
      "inputs": [
        {
          "indexed": true,
          "internalType": "address",
          "name": "from",
          "type": "address"
        },
        {
          "indexed": true,
          "internalType": "address",
          "name": "to",
          "type": "address"
        },
        {
          "indexed": true,
          "internalType": "uint256",
          "name": "tokenId",
          "type": "uint256"
        }
      ],
      "name": "Transfer",
      "type": "event"
    },
    {
      "inputs": [
        {
          "internalType": "address",
          "name": "to",
          "type": "address"
        },
        {
          "internalType": "uint256",
          "name": "tokenId",
          "type": "uint256"
        }
      ],
      "name": "approve",
      "outputs": [],
      "stateMutability": "nonpayable",
      "type": "function"
    },
    {
      "inputs": [
        {
          "internalType": "address",
          "name": "owner",
          "type": "address"
        }
      ],
      "name": "balanceOf",
      "outputs": [
        {
          "internalType": "uint256",
          "name": "",
          "type": "uint256"
        }
      ],
      "stateMutability": "view",
      "type": "function"
    },
    {
      "inputs": [
        {
          "internalType": "uint256",
          "name": "tokenId",
          "type": "uint256"
        }
      ],
      "name": "getApproved",
      "outputs": [
        {
          "internalType": "address",
          "name": "",
          "type": "address"
        }
      ],
      "stateMutability": "view",
      "type": "function"
    },
    {
      "inputs": [
        {
          "internalType": "address",
          "name": "owner",
          "type": "address"
        },
        {
          "internalType": "address",
          "name": "operator",
          "type": "address"
        }
      ],
      "name": "isApprovedForAll",
      "outputs": [
        {
          "internalType": "bool",
          "name": "",
          "type": "bool"
        }
      ],
      "stateMutability": "view",
      "type": "function"
    },
    {
      "inputs": [
        {
          "internalType": "uint256",
          "name": "_offeringId",
          "type": "uint256"
        },
        {
          "internalType": "string",
          "name": "_recursiveArtCID",
          "type": "string"
        }
      ],
      "name": "mintRecursiveNFT",
      "outputs": [],
      "stateMutability": "nonpayable",
      "type": "function"
    },
    {
      "inputs": [],
      "name": "name",
      "outputs": [
        {
          "internalType": "string",
          "name": "",
          "type": "string"
        }
      ],
      "stateMutability": "view",
      "type": "function"
    },
    {
      "inputs": [],
      "name": "owner",
      "outputs": [
        {
          "internalType": "address",
          "name": "",
          "type": "address"
        }
      ],
      "stateMutability": "view",
      "type": "function"
    },
    {
      "inputs": [
        {
          "internalType": "uint256",
          "name": "tokenId",
          "type": "uint256"
        }
      ],
      "name": "ownerOf",
      "outputs": [
        {
          "internalType": "address",
          "name": "",
          "type": "address"
        }
      ],
      "stateMutability": "view",
      "type": "function"
    },
    {
      "inputs": [],
      "name": "recursiveExchange",
      "outputs": [
        {
          "internalType": "contract RecursiveExchange",
          "name": "",
          "type": "address"
        }
      ],
      "stateMutability": "view",
      "type": "function"
    },
    {
      "inputs": [],
      "name": "recursiveTokenId",
      "outputs": [
        {
          "internalType": "uint256",
          "name": "_value",
          "type": "uint256"
        }
      ],
      "stateMutability": "view",
      "type": "function"
    },
    {
      "inputs": [],
      "name": "renounceOwnership",
      "outputs": [],
      "stateMutability": "nonpayable",
      "type": "function"
    },
    {
      "inputs": [
        {
          "internalType": "address",
          "name": "from",
          "type": "address"
        },
        {
          "internalType": "address",
          "name": "to",
          "type": "address"
        },
        {
          "internalType": "uint256",
          "name": "tokenId",
          "type": "uint256"
        }
      ],
      "name": "safeTransferFrom",
      "outputs": [],
      "stateMutability": "nonpayable",
      "type": "function"
    },
    {
      "inputs": [
        {
          "internalType": "address",
          "name": "from",
          "type": "address"
        },
        {
          "internalType": "address",
          "name": "to",
          "type": "address"
        },
        {
          "internalType": "uint256",
          "name": "tokenId",
          "type": "uint256"
        },
        {
          "internalType": "bytes",
          "name": "_data",
          "type": "bytes"
        }
      ],
      "name": "safeTransferFrom",
      "outputs": [],
      "stateMutability": "nonpayable",
      "type": "function"
    },
    {
      "inputs": [
        {
          "internalType": "address",
          "name": "operator",
          "type": "address"
        },
        {
          "internalType": "bool",
          "name": "approved",
          "type": "bool"
        }
      ],
      "name": "setApprovalForAll",
      "outputs": [],
      "stateMutability": "nonpayable",
      "type": "function"
    },
    {
      "inputs": [
        {
          "internalType": "contract RecursiveExchange",
          "name": "_recursiveExchange",
          "type": "address"
        }
      ],
      "name": "setRecursiveExchange",
      "outputs": [],
      "stateMutability": "nonpayable",
      "type": "function"
    },
    {
      "inputs": [
        {
          "internalType": "bytes4",
          "name": "interfaceId",
          "type": "bytes4"
        }
      ],
      "name": "supportsInterface",
      "outputs": [
        {
          "internalType": "bool",
          "name": "",
          "type": "bool"
        }
      ],
      "stateMutability": "view",
      "type": "function"
    },
    {
      "inputs": [],
      "name": "symbol",
      "outputs": [
        {
          "internalType": "string",
          "name": "",
          "type": "string"
        }
      ],
      "stateMutability": "view",
      "type": "function"
    },
    {
      "inputs": [
        {
          "internalType": "uint256",
          "name": "tokenId",
          "type": "uint256"
        }
      ],
      "name": "tokenURI",
      "outputs": [
        {
          "internalType": "string",
          "name": "",
          "type": "string"
        }
      ],
      "stateMutability": "view",
      "type": "function"
    },
    {
      "inputs": [
        {
          "internalType": "address",
          "name": "from",
          "type": "address"
        },
        {
          "internalType": "address",
          "name": "to",
          "type": "address"
        },
        {
          "internalType": "uint256",
          "name": "tokenId",
          "type": "uint256"
        }
      ],
      "name": "transferFrom",
      "outputs": [],
      "stateMutability": "nonpayable",
      "type": "function"
    },
    {
      "inputs": [
        {
          "internalType": "address",
          "name": "newOwner",
          "type": "address"
        }
      ],
      "name": "transferOwnership",
      "outputs": [],
      "stateMutability": "nonpayable",
      "type": "function"
    }
  ],
  "transactionHash": "0x1a5e8c81cdb5e7f8f44b7d67e57b67e29e16b647c88095aba4516ca0b4d42217",
  "args": [],
  "numDeployments": 1,
  "solcInputHash": "0dda79b185b60dd12f11c24e947553ee",
  "bytecode": "0x60806040523480156200001157600080fd5b506040518060400160405280600f81526020017f5265637572736976654172744e465400000000000000000000000000000000008152506040518060400160405280600581526020017f52414e4654000000000000000000000000000000000000000000000000000000815250816000908051906020019062000096929190620001a6565b508060019080519060200190620000af929190620001a6565b505050620000d2620000c6620000d860201b60201c565b620000e060201b60201c565b620002bb565b600033905090565b6000600760009054906101000a900473ffffffffffffffffffffffffffffffffffffffff16905081600760006101000a81548173ffffffffffffffffffffffffffffffffffffffff021916908373ffffffffffffffffffffffffffffffffffffffff1602179055508173ffffffffffffffffffffffffffffffffffffffff168173ffffffffffffffffffffffffffffffffffffffff167f8be0079c531659141344cd1fd0a4f28419497f9722a3daafe3b4186f6b6457e060405160405180910390a35050565b828054620001b49062000256565b90600052602060002090601f016020900481019282620001d8576000855562000224565b82601f10620001f357805160ff191683800117855562000224565b8280016001018555821562000224579182015b828111156200022357825182559160200191906001019062000206565b5b50905062000233919062000237565b5090565b5b808211156200025257600081600090555060010162000238565b5090565b600060028204905060018216806200026f57607f821691505b602082108114156200028657620002856200028c565b5b50919050565b7f4e487b7100000000000000000000000000000000000000000000000000000000600052602260045260246000fd5b6133fe80620002cb6000396000f3fe608060405234801561001057600080fd5b506004361061012c5760003560e01c8063715018a6116100ad578063c87b56dd11610071578063c87b56dd14610319578063cff92f9e14610349578063e985e9c514610367578063f2fde38b14610397578063fbd13e9c146103b35761012c565b8063715018a61461029b5780638da5cb5b146102a557806395d89b41146102c3578063a22cb465146102e1578063b88d4fde146102fd5761012c565b806323b872dd116100f457806323b872dd146101e757806342842e0e146102035780636352211e1461021f5780636528bc761461024f57806370a082311461026b5761012c565b806301ffc9a71461013157806304dd8d811461016157806306fdde031461017d578063081812fc1461019b578063095ea7b3146101cb575b600080fd5b61014b60048036038101906101469190612201565b6103d1565b60405161015891906126fc565b60405180910390f35b61017b600480360381019061017691906122a5565b6104b3565b005b61018561060a565b6040516101929190612732565b60405180910390f35b6101b560048036038101906101b0919061227c565b61069c565b6040516101c29190612695565b60405180910390f35b6101e560048036038101906101e091906121c5565b610721565b005b61020160048036038101906101fc91906120bf565b610839565b005b61021d600480360381019061021891906120bf565b610899565b005b6102396004803603810190610234919061227c565b6108b9565b6040516102469190612695565b60405180910390f35b61026960048036038101906102649190612253565b61096b565b005b61028560048036038101906102809190611fd1565b610a2b565b60405161029291906129b4565b60405180910390f35b6102a3610ae3565b005b6102ad610b6b565b6040516102ba9190612695565b60405180910390f35b6102cb610b95565b6040516102d89190612732565b60405180910390f35b6102fb60048036038101906102f69190612189565b610c27565b005b6103176004803603810190610312919061210e565b610c3d565b005b610333600480360381019061032e919061227c565b610c9f565b6040516103409190612732565b60405180910390f35b610351610cb1565b60405161035e91906129b4565b60405180910390f35b610381600480360381019061037c9190611ffa565b610cbd565b60405161038e91906126fc565b60405180910390f35b6103b160048036038101906103ac9190611fd1565b610d51565b005b6103bb610e49565b6040516103c89190612717565b60405180910390f35b60007f80ac58cd000000000000000000000000000000000000000000000000000000007bffffffffffffffffffffffffffffffffffffffffffffffffffffffff1916827bffffffffffffffffffffffffffffffffffffffffffffffffffffffff1916148061049c57507f5b5e139f000000000000000000000000000000000000000000000000000000007bffffffffffffffffffffffffffffffffffffffffffffffffffffffff1916827bffffffffffffffffffffffffffffffffffffffffffffffffffffffff1916145b806104ac57506104ab82610e6f565b5b9050919050565b6000600960009054906101000a900473ffffffffffffffffffffffffffffffffffffffff1673ffffffffffffffffffffffffffffffffffffffff1663603fe2d6846040518263ffffffff1660e01b815260040161051091906129b4565b60c06040518083038186803b15801561052857600080fd5b505afa15801561053c573d6000803e3d6000fd5b505050506040513d601f19601f820116820180604052508101906105609190612036565b505050509150503373ffffffffffffffffffffffffffffffffffffffff168173ffffffffffffffffffffffffffffffffffffffff16146105d5576040517f08c379a00000000000000000000000000000000000000000000000000000000081526004016105cc906127b4565b60405180910390fd5b6105df6008610ed9565b6105f2336105ed6008610eef565b610efd565b6106056105ff6008610eef565b836110cb565b505050565b60606000805461061990612c40565b80601f016020809104026020016040519081016040528092919081815260200182805461064590612c40565b80156106925780601f1061066757610100808354040283529160200191610692565b820191906000526020600020905b81548152906001019060200180831161067557829003601f168201915b5050505050905090565b60006106a78261113f565b6106e6576040517f08c379a00000000000000000000000000000000000000000000000000000000081526004016106dd906128f4565b60405180910390fd5b6004600083815260200190815260200160002060009054906101000a900473ffffffffffffffffffffffffffffffffffffffff169050919050565b600061072c826108b9565b90508073ffffffffffffffffffffffffffffffffffffffff168373ffffffffffffffffffffffffffffffffffffffff16141561079d576040517f08c379a000000000000000000000000000000000000000000000000000000000815260040161079490612974565b60405180910390fd5b8073ffffffffffffffffffffffffffffffffffffffff166107bc6111ab565b73ffffffffffffffffffffffffffffffffffffffff1614806107eb57506107ea816107e56111ab565b610cbd565b5b61082a576040517f08c379a000000000000000000000000000000000000000000000000000000000815260040161082190612834565b60405180910390fd5b61083483836111b3565b505050565b61084a6108446111ab565b8261126c565b610889576040517f08c379a000000000000000000000000000000000000000000000000000000000815260040161088090612994565b60405180910390fd5b61089483838361134a565b505050565b6108b483838360405180602001604052806000815250610c3d565b505050565b6000806002600084815260200190815260200160002060009054906101000a900473ffffffffffffffffffffffffffffffffffffffff169050600073ffffffffffffffffffffffffffffffffffffffff168173ffffffffffffffffffffffffffffffffffffffff161415610962576040517f08c379a000000000000000000000000000000000000000000000000000000000815260040161095990612874565b60405180910390fd5b80915050919050565b6109736111ab565b73ffffffffffffffffffffffffffffffffffffffff16610991610b6b565b73ffffffffffffffffffffffffffffffffffffffff16146109e7576040517f08c379a00000000000000000000000000000000000000000000000000000000081526004016109de90612914565b60405180910390fd5b80600960006101000a81548173ffffffffffffffffffffffffffffffffffffffff021916908373ffffffffffffffffffffffffffffffffffffffff16021790555050565b60008073ffffffffffffffffffffffffffffffffffffffff168273ffffffffffffffffffffffffffffffffffffffff161415610a9c576040517f08c379a0000000000000000000000000000000000000000000000000000000008152600401610a9390612854565b60405180910390fd5b600360008373ffffffffffffffffffffffffffffffffffffffff1673ffffffffffffffffffffffffffffffffffffffff168152602001908152602001600020549050919050565b610aeb6111ab565b73ffffffffffffffffffffffffffffffffffffffff16610b09610b6b565b73ffffffffffffffffffffffffffffffffffffffff1614610b5f576040517f08c379a0000000000000000000000000000000000000000000000000000000008152600401610b5690612914565b60405180910390fd5b610b6960006115a6565b565b6000600760009054906101000a900473ffffffffffffffffffffffffffffffffffffffff16905090565b606060018054610ba490612c40565b80601f0160208091040260200160405190810160405280929190818152602001828054610bd090612c40565b8015610c1d5780601f10610bf257610100808354040283529160200191610c1d565b820191906000526020600020905b815481529060010190602001808311610c0057829003601f168201915b5050505050905090565b610c39610c326111ab565b838361166c565b5050565b610c4e610c486111ab565b8361126c565b610c8d576040517f08c379a0000000000000000000000000000000000000000000000000000000008152600401610c8490612994565b60405180910390fd5b610c99848484846117d9565b50505050565b6060610caa82611835565b9050919050565b60088060000154905081565b6000600560008473ffffffffffffffffffffffffffffffffffffffff1673ffffffffffffffffffffffffffffffffffffffff16815260200190815260200160002060008373ffffffffffffffffffffffffffffffffffffffff1673ffffffffffffffffffffffffffffffffffffffff16815260200190815260200160002060009054906101000a900460ff16905092915050565b610d596111ab565b73ffffffffffffffffffffffffffffffffffffffff16610d77610b6b565b73ffffffffffffffffffffffffffffffffffffffff1614610dcd576040517f08c379a0000000000000000000000000000000000000000000000000000000008152600401610dc490612914565b60405180910390fd5b600073ffffffffffffffffffffffffffffffffffffffff168173ffffffffffffffffffffffffffffffffffffffff161415610e3d576040517f08c379a0000000000000000000000000000000000000000000000000000000008152600401610e3490612774565b60405180910390fd5b610e46816115a6565b50565b600960009054906101000a900473ffffffffffffffffffffffffffffffffffffffff1681565b60007f01ffc9a7000000000000000000000000000000000000000000000000000000007bffffffffffffffffffffffffffffffffffffffffffffffffffffffff1916827bffffffffffffffffffffffffffffffffffffffffffffffffffffffff1916149050919050565b6001816000016000828254019250508190555050565b600081600001549050919050565b600073ffffffffffffffffffffffffffffffffffffffff168273ffffffffffffffffffffffffffffffffffffffff161415610f6d576040517f08c379a0000000000000000000000000000000000000000000000000000000008152600401610f64906128b4565b60405180910390fd5b610f768161113f565b15610fb6576040517f08c379a0000000000000000000000000000000000000000000000000000000008152600401610fad90612794565b60405180910390fd5b610fc260008383611987565b6001600360008473ffffffffffffffffffffffffffffffffffffffff1673ffffffffffffffffffffffffffffffffffffffff16815260200190815260200160002060008282546110129190612a99565b92505081905550816002600083815260200190815260200160002060006101000a81548173ffffffffffffffffffffffffffffffffffffffff021916908373ffffffffffffffffffffffffffffffffffffffff160217905550808273ffffffffffffffffffffffffffffffffffffffff16600073ffffffffffffffffffffffffffffffffffffffff167fddf252ad1be2c89b69c2b068fc378daa952ba7f163c4a11628f55a4df523b3ef60405160405180910390a45050565b6110d48261113f565b611113576040517f08c379a000000000000000000000000000000000000000000000000000000000815260040161110a90612894565b60405180910390fd5b8060066000848152602001908152602001600020908051906020019061113a929190611da1565b505050565b60008073ffffffffffffffffffffffffffffffffffffffff166002600084815260200190815260200160002060009054906101000a900473ffffffffffffffffffffffffffffffffffffffff1673ffffffffffffffffffffffffffffffffffffffff1614159050919050565b600033905090565b816004600083815260200190815260200160002060006101000a81548173ffffffffffffffffffffffffffffffffffffffff021916908373ffffffffffffffffffffffffffffffffffffffff160217905550808273ffffffffffffffffffffffffffffffffffffffff16611226836108b9565b73ffffffffffffffffffffffffffffffffffffffff167f8c5be1e5ebec7d5bd14f71427d1e84f3dd0314c0f7b2291e5b200ac8c7c3b92560405160405180910390a45050565b60006112778261113f565b6112b6576040517f08c379a00000000000000000000000000000000000000000000000000000000081526004016112ad90612814565b60405180910390fd5b60006112c1836108b9565b90508073ffffffffffffffffffffffffffffffffffffffff168473ffffffffffffffffffffffffffffffffffffffff16148061133057508373ffffffffffffffffffffffffffffffffffffffff166113188461069c565b73ffffffffffffffffffffffffffffffffffffffff16145b8061134157506113408185610cbd565b5b91505092915050565b8273ffffffffffffffffffffffffffffffffffffffff1661136a826108b9565b73ffffffffffffffffffffffffffffffffffffffff16146113c0576040517f08c379a00000000000000000000000000000000000000000000000000000000081526004016113b790612934565b60405180910390fd5b600073ffffffffffffffffffffffffffffffffffffffff168273ffffffffffffffffffffffffffffffffffffffff161415611430576040517f08c379a0000000000000000000000000000000000000000000000000000000008152600401611427906127d4565b60405180910390fd5b61143b838383611987565b6114466000826111b3565b6001600360008573ffffffffffffffffffffffffffffffffffffffff1673ffffffffffffffffffffffffffffffffffffffff16815260200190815260200160002060008282546114969190612b20565b925050819055506001600360008473ffffffffffffffffffffffffffffffffffffffff1673ffffffffffffffffffffffffffffffffffffffff16815260200190815260200160002060008282546114ed9190612a99565b92505081905550816002600083815260200190815260200160002060006101000a81548173ffffffffffffffffffffffffffffffffffffffff021916908373ffffffffffffffffffffffffffffffffffffffff160217905550808273ffffffffffffffffffffffffffffffffffffffff168473ffffffffffffffffffffffffffffffffffffffff167fddf252ad1be2c89b69c2b068fc378daa952ba7f163c4a11628f55a4df523b3ef60405160405180910390a4505050565b6000600760009054906101000a900473ffffffffffffffffffffffffffffffffffffffff16905081600760006101000a81548173ffffffffffffffffffffffffffffffffffffffff021916908373ffffffffffffffffffffffffffffffffffffffff1602179055508173ffffffffffffffffffffffffffffffffffffffff168173ffffffffffffffffffffffffffffffffffffffff167f8be0079c531659141344cd1fd0a4f28419497f9722a3daafe3b4186f6b6457e060405160405180910390a35050565b8173ffffffffffffffffffffffffffffffffffffffff168373ffffffffffffffffffffffffffffffffffffffff1614156116db576040517f08c379a00000000000000000000000000000000000000000000000000000000081526004016116d2906127f4565b60405180910390fd5b80600560008573ffffffffffffffffffffffffffffffffffffffff1673ffffffffffffffffffffffffffffffffffffffff16815260200190815260200160002060008473ffffffffffffffffffffffffffffffffffffffff1673ffffffffffffffffffffffffffffffffffffffff16815260200190815260200160002060006101000a81548160ff0219169083151502179055508173ffffffffffffffffffffffffffffffffffffffff168373ffffffffffffffffffffffffffffffffffffffff167f17307eab39ab6107e8899845ad3d59bd9653f200f220920489ca2b5937696c31836040516117cc91906126fc565b60405180910390a3505050565b6117e484848461134a565b6117f08484848461198c565b61182f576040517f08c379a000000000000000000000000000000000000000000000000000000000815260040161182690612754565b60405180910390fd5b50505050565b60606118408261113f565b61187f576040517f08c379a0000000000000000000000000000000000000000000000000000000008152600401611876906128d4565b60405180910390fd5b600060066000848152602001908152602001600020805461189f90612c40565b80601f01602080910402602001604051908101604052809291908181526020018280546118cb90612c40565b80156119185780601f106118ed57610100808354040283529160200191611918565b820191906000526020600020905b8154815290600101906020018083116118fb57829003601f168201915b505050505090506000611929611b23565b905060008151141561193f578192505050611982565b60008251111561197457808260405160200161195c929190612671565b60405160208183030381529060405292505050611982565b61197d84611b3a565b925050505b919050565b505050565b60006119ad8473ffffffffffffffffffffffffffffffffffffffff16611be1565b15611b16578373ffffffffffffffffffffffffffffffffffffffff1663150b7a026119d66111ab565b8786866040518563ffffffff1660e01b81526004016119f894939291906126b0565b602060405180830381600087803b158015611a1257600080fd5b505af1925050508015611a4357506040513d601f19601f82011682018060405250810190611a40919061222a565b60015b611ac6573d8060008114611a73576040519150601f19603f3d011682016040523d82523d6000602084013e611a78565b606091505b50600081511415611abe576040517f08c379a0000000000000000000000000000000000000000000000000000000008152600401611ab590612754565b60405180910390fd5b805181602001fd5b63150b7a0260e01b7bffffffffffffffffffffffffffffffffffffffffffffffffffffffff1916817bffffffffffffffffffffffffffffffffffffffffffffffffffffffff191614915050611b1b565b600190505b949350505050565b606060405180602001604052806000815250905090565b6060611b458261113f565b611b84576040517f08c379a0000000000000000000000000000000000000000000000000000000008152600401611b7b90612954565b60405180910390fd5b6000611b8e611b23565b90506000815111611bae5760405180602001604052806000815250611bd9565b80611bb884611bf4565b604051602001611bc9929190612671565b6040516020818303038152906040525b915050919050565b600080823b905060008111915050919050565b60606000821415611c3c576040518060400160405280600181526020017f30000000000000000000000000000000000000000000000000000000000000008152509050611d9c565b600082905060005b60008214611c6e578080611c5790612ca3565b915050600a82611c679190612aef565b9150611c44565b60008167ffffffffffffffff811115611cb0577f4e487b7100000000000000000000000000000000000000000000000000000000600052604160045260246000fd5b6040519080825280601f01601f191660200182016040528015611ce25781602001600182028036833780820191505090505b5090505b60008514611d9557600182611cfb9190612b20565b9150600a85611d0a9190612cec565b6030611d169190612a99565b60f81b818381518110611d52577f4e487b7100000000000000000000000000000000000000000000000000000000600052603260045260246000fd5b60200101907effffffffffffffffffffffffffffffffffffffffffffffffffffffffffffff1916908160001a905350600a85611d8e9190612aef565b9450611ce6565b8093505050505b919050565b828054611dad90612c40565b90600052602060002090601f016020900481019282611dcf5760008555611e16565b82601f10611de857805160ff1916838001178555611e16565b82800160010185558215611e16579182015b82811115611e15578251825591602001919060010190611dfa565b5b509050611e239190611e27565b5090565b5b80821115611e40576000816000905550600101611e28565b5090565b6000611e57611e52846129f4565b6129cf565b905082815260208101848484011115611e6f57600080fd5b611e7a848285612bfe565b509392505050565b6000611e95611e9084612a25565b6129cf565b905082815260208101848484011115611ead57600080fd5b611eb8848285612bfe565b509392505050565b600081359050611ecf81613355565b92915050565b600081519050611ee481613355565b92915050565b600081359050611ef98161336c565b92915050565b600081519050611f0e8161336c565b92915050565b600081359050611f2381613383565b92915050565b600081519050611f3881613383565b92915050565b600082601f830112611f4f57600080fd5b8135611f5f848260208601611e44565b91505092915050565b600081359050611f778161339a565b92915050565b600082601f830112611f8e57600080fd5b8135611f9e848260208601611e82565b91505092915050565b600081359050611fb6816133b1565b92915050565b600081519050611fcb816133b1565b92915050565b600060208284031215611fe357600080fd5b6000611ff184828501611ec0565b91505092915050565b6000806040838503121561200d57600080fd5b600061201b85828601611ec0565b925050602061202c85828601611ec0565b9150509250929050565b60008060008060008060c0878903121561204f57600080fd5b600061205d89828a01611ed5565b965050602061206e89828a01611ed5565b955050604061207f89828a01611ed5565b945050606061209089828a01611fbc565b93505060806120a189828a01611fbc565b92505060a06120b289828a01611eff565b9150509295509295509295565b6000806000606084860312156120d457600080fd5b60006120e286828701611ec0565b93505060206120f386828701611ec0565b925050604061210486828701611fa7565b9150509250925092565b6000806000806080858703121561212457600080fd5b600061213287828801611ec0565b945050602061214387828801611ec0565b935050604061215487828801611fa7565b925050606085013567ffffffffffffffff81111561217157600080fd5b61217d87828801611f3e565b91505092959194509250565b6000806040838503121561219c57600080fd5b60006121aa85828601611ec0565b92505060206121bb85828601611eea565b9150509250929050565b600080604083850312156121d857600080fd5b60006121e685828601611ec0565b92505060206121f785828601611fa7565b9150509250929050565b60006020828403121561221357600080fd5b600061222184828501611f14565b91505092915050565b60006020828403121561223c57600080fd5b600061224a84828501611f29565b91505092915050565b60006020828403121561226557600080fd5b600061227384828501611f68565b91505092915050565b60006020828403121561228e57600080fd5b600061229c84828501611fa7565b91505092915050565b600080604083850312156122b857600080fd5b60006122c685828601611fa7565b925050602083013567ffffffffffffffff8111156122e357600080fd5b6122ef85828601611f7d565b9150509250929050565b61230281612b54565b82525050565b61231181612b66565b82525050565b600061232282612a56565b61232c8185612a6c565b935061233c818560208601612c0d565b61234581612dd9565b840191505092915050565b61235981612bda565b82525050565b600061236a82612a61565b6123748185612a7d565b9350612384818560208601612c0d565b61238d81612dd9565b840191505092915050565b60006123a382612a61565b6123ad8185612a8e565b93506123bd818560208601612c0d565b80840191505092915050565b60006123d6603283612a7d565b91506123e182612dea565b604082019050919050565b60006123f9602683612a7d565b915061240482612e39565b604082019050919050565b600061241c601c83612a7d565b915061242782612e88565b602082019050919050565b600061243f604383612a7d565b915061244a82612eb1565b606082019050919050565b6000612462602483612a7d565b915061246d82612f26565b604082019050919050565b6000612485601983612a7d565b915061249082612f75565b602082019050919050565b60006124a8602c83612a7d565b91506124b382612f9e565b604082019050919050565b60006124cb603883612a7d565b91506124d682612fed565b604082019050919050565b60006124ee602a83612a7d565b91506124f98261303c565b604082019050919050565b6000612511602983612a7d565b915061251c8261308b565b604082019050919050565b6000612534602e83612a7d565b915061253f826130da565b604082019050919050565b6000612557602083612a7d565b915061256282613129565b602082019050919050565b600061257a603183612a7d565b915061258582613152565b604082019050919050565b600061259d602c83612a7d565b91506125a8826131a1565b604082019050919050565b60006125c0602083612a7d565b91506125cb826131f0565b602082019050919050565b60006125e3602983612a7d565b91506125ee82613219565b604082019050919050565b6000612606602f83612a7d565b915061261182613268565b604082019050919050565b6000612629602183612a7d565b9150612634826132b7565b604082019050919050565b600061264c603183612a7d565b915061265782613306565b604082019050919050565b61266b81612bd0565b82525050565b600061267d8285612398565b91506126898284612398565b91508190509392505050565b60006020820190506126aa60008301846122f9565b92915050565b60006080820190506126c560008301876122f9565b6126d260208301866122f9565b6126df6040830185612662565b81810360608301526126f18184612317565b905095945050505050565b60006020820190506127116000830184612308565b92915050565b600060208201905061272c6000830184612350565b92915050565b6000602082019050818103600083015261274c818461235f565b905092915050565b6000602082019050818103600083015261276d816123c9565b9050919050565b6000602082019050818103600083015261278d816123ec565b9050919050565b600060208201905081810360008301526127ad8161240f565b9050919050565b600060208201905081810360008301526127cd81612432565b9050919050565b600060208201905081810360008301526127ed81612455565b9050919050565b6000602082019050818103600083015261280d81612478565b9050919050565b6000602082019050818103600083015261282d8161249b565b9050919050565b6000602082019050818103600083015261284d816124be565b9050919050565b6000602082019050818103600083015261286d816124e1565b9050919050565b6000602082019050818103600083015261288d81612504565b9050919050565b600060208201905081810360008301526128ad81612527565b9050919050565b600060208201905081810360008301526128cd8161254a565b9050919050565b600060208201905081810360008301526128ed8161256d565b9050919050565b6000602082019050818103600083015261290d81612590565b9050919050565b6000602082019050818103600083015261292d816125b3565b9050919050565b6000602082019050818103600083015261294d816125d6565b9050919050565b6000602082019050818103600083015261296d816125f9565b9050919050565b6000602082019050818103600083015261298d8161261c565b9050919050565b600060208201905081810360008301526129ad8161263f565b9050919050565b60006020820190506129c96000830184612662565b92915050565b60006129d96129ea565b90506129e58282612c72565b919050565b6000604051905090565b600067ffffffffffffffff821115612a0f57612a0e612daa565b5b612a1882612dd9565b9050602081019050919050565b600067ffffffffffffffff821115612a4057612a3f612daa565b5b612a4982612dd9565b9050602081019050919050565b600081519050919050565b600081519050919050565b600082825260208201905092915050565b600082825260208201905092915050565b600081905092915050565b6000612aa482612bd0565b9150612aaf83612bd0565b9250827fffffffffffffffffffffffffffffffffffffffffffffffffffffffffffffffff03821115612ae457612ae3612d1d565b5b828201905092915050565b6000612afa82612bd0565b9150612b0583612bd0565b925082612b1557612b14612d4c565b5b828204905092915050565b6000612b2b82612bd0565b9150612b3683612bd0565b925082821015612b4957612b48612d1d565b5b828203905092915050565b6000612b5f82612bb0565b9050919050565b60008115159050919050565b60007fffffffff0000000000000000000000000000000000000000000000000000000082169050919050565b6000612ba982612b54565b9050919050565b600073ffffffffffffffffffffffffffffffffffffffff82169050919050565b6000819050919050565b6000612be582612bec565b9050919050565b6000612bf782612bb0565b9050919050565b82818337600083830152505050565b60005b83811015612c2b578082015181840152602081019050612c10565b83811115612c3a576000848401525b50505050565b60006002820490506001821680612c5857607f821691505b60208210811415612c6c57612c6b612d7b565b5b50919050565b612c7b82612dd9565b810181811067ffffffffffffffff82111715612c9a57612c99612daa565b5b80604052505050565b6000612cae82612bd0565b91507fffffffffffffffffffffffffffffffffffffffffffffffffffffffffffffffff821415612ce157612ce0612d1d565b5b600182019050919050565b6000612cf782612bd0565b9150612d0283612bd0565b925082612d1257612d11612d4c565b5b828206905092915050565b7f4e487b7100000000000000000000000000000000000000000000000000000000600052601160045260246000fd5b7f4e487b7100000000000000000000000000000000000000000000000000000000600052601260045260246000fd5b7f4e487b7100000000000000000000000000000000000000000000000000000000600052602260045260246000fd5b7f4e487b7100000000000000000000000000000000000000000000000000000000600052604160045260246000fd5b6000601f19601f8301169050919050565b7f4552433732313a207472616e7366657220746f206e6f6e20455243373231526560008201527f63656976657220696d706c656d656e7465720000000000000000000000000000602082015250565b7f4f776e61626c653a206e6577206f776e657220697320746865207a65726f206160008201527f6464726573730000000000000000000000000000000000000000000000000000602082015250565b7f4552433732313a20746f6b656e20616c7265616479206d696e74656400000000600082015250565b7f6d73672e73656e64657220646f6573206e6f74206f776e20746865206d65746160008201527f646174612066726f6d207468652073616c65206f66207468697320746f6b656e60208201527f2049440000000000000000000000000000000000000000000000000000000000604082015250565b7f4552433732313a207472616e7366657220746f20746865207a65726f2061646460008201527f7265737300000000000000000000000000000000000000000000000000000000602082015250565b7f4552433732313a20617070726f766520746f2063616c6c657200000000000000600082015250565b7f4552433732313a206f70657261746f7220717565727920666f72206e6f6e657860008201527f697374656e7420746f6b656e0000000000000000000000000000000000000000602082015250565b7f4552433732313a20617070726f76652063616c6c6572206973206e6f74206f7760008201527f6e6572206e6f7220617070726f76656420666f7220616c6c0000000000000000602082015250565b7f4552433732313a2062616c616e636520717565727920666f7220746865207a6560008201527f726f206164647265737300000000000000000000000000000000000000000000602082015250565b7f4552433732313a206f776e657220717565727920666f72206e6f6e657869737460008201527f656e7420746f6b656e0000000000000000000000000000000000000000000000602082015250565b7f45524337323155524953746f726167653a2055524920736574206f66206e6f6e60008201527f6578697374656e7420746f6b656e000000000000000000000000000000000000602082015250565b7f4552433732313a206d696e7420746f20746865207a65726f2061646472657373600082015250565b7f45524337323155524953746f726167653a2055524920717565727920666f722060008201527f6e6f6e6578697374656e7420746f6b656e000000000000000000000000000000602082015250565b7f4552433732313a20617070726f76656420717565727920666f72206e6f6e657860008201527f697374656e7420746f6b656e0000000000000000000000000000000000000000602082015250565b7f4f776e61626c653a2063616c6c6572206973206e6f7420746865206f776e6572600082015250565b7f4552433732313a207472616e73666572206f6620746f6b656e2074686174206960008201527f73206e6f74206f776e0000000000000000000000000000000000000000000000602082015250565b7f4552433732314d657461646174613a2055524920717565727920666f72206e6f60008201527f6e6578697374656e7420746f6b656e0000000000000000000000000000000000602082015250565b7f4552433732313a20617070726f76616c20746f2063757272656e74206f776e6560008201527f7200000000000000000000000000000000000000000000000000000000000000602082015250565b7f4552433732313a207472616e736665722063616c6c6572206973206e6f74206f60008201527f776e6572206e6f7220617070726f766564000000000000000000000000000000602082015250565b61335e81612b54565b811461336957600080fd5b50565b61337581612b66565b811461338057600080fd5b50565b61338c81612b72565b811461339757600080fd5b50565b6133a381612b9e565b81146133ae57600080fd5b50565b6133ba81612bd0565b81146133c557600080fd5b5056fea2646970667358221220d61bc1d4d554ff989a4caeb1067b7e17bc58cb78fbbd764590ae55c4f6ff917f64736f6c63430008040033",
  "devdoc": {
    "kind": "dev",
    "methods": {
      "approve(address,uint256)": {
        "details": "See {IERC721-approve}."
      },
      "balanceOf(address)": {
        "details": "See {IERC721-balanceOf}."
      },
      "getApproved(uint256)": {
        "details": "See {IERC721-getApproved}."
      },
      "isApprovedForAll(address,address)": {
        "details": "See {IERC721-isApprovedForAll}."
      },
      "name()": {
        "details": "See {IERC721Metadata-name}."
      },
      "owner()": {
        "details": "Returns the address of the current owner."
      },
      "ownerOf(uint256)": {
        "details": "See {IERC721-ownerOf}."
      },
      "renounceOwnership()": {
        "details": "Leaves the contract without owner. It will not be possible to call `onlyOwner` functions anymore. Can only be called by the current owner. NOTE: Renouncing ownership will leave the contract without an owner, thereby removing any functionality that is only available to the owner."
      },
      "safeTransferFrom(address,address,uint256)": {
        "details": "See {IERC721-safeTransferFrom}."
      },
      "safeTransferFrom(address,address,uint256,bytes)": {
        "details": "See {IERC721-safeTransferFrom}."
      },
      "setApprovalForAll(address,bool)": {
        "details": "See {IERC721-setApprovalForAll}."
      },
      "supportsInterface(bytes4)": {
        "details": "See {IERC165-supportsInterface}."
      },
      "symbol()": {
        "details": "See {IERC721Metadata-symbol}."
      },
      "transferFrom(address,address,uint256)": {
        "details": "See {IERC721-transferFrom}."
      },
      "transferOwnership(address)": {
        "details": "Transfers ownership of the contract to a new account (`newOwner`). Can only be called by the current owner."
      }
    },
    "version": 1
  },
  "userdoc": {
    "kind": "user",
    "methods": {},
    "notice": "This contract is for the NFTHack 2022 ETHGlobal hackathon. Developed in this repo: https://github.com/onionpeel/nft-hackathon-2022",
    "version": 1
  },
  "storageLayout": {
    "storage": [
      {
        "astId": 130,
        "contract": "contracts/RecursiveArtNFT.sol:RecursiveArtNFT",
        "label": "_name",
        "offset": 0,
        "slot": "0",
        "type": "t_string_storage"
      },
      {
        "astId": 132,
        "contract": "contracts/RecursiveArtNFT.sol:RecursiveArtNFT",
        "label": "_symbol",
        "offset": 0,
        "slot": "1",
        "type": "t_string_storage"
      },
      {
        "astId": 136,
        "contract": "contracts/RecursiveArtNFT.sol:RecursiveArtNFT",
        "label": "_owners",
        "offset": 0,
        "slot": "2",
        "type": "t_mapping(t_uint256,t_address)"
      },
      {
        "astId": 140,
        "contract": "contracts/RecursiveArtNFT.sol:RecursiveArtNFT",
        "label": "_balances",
        "offset": 0,
        "slot": "3",
        "type": "t_mapping(t_address,t_uint256)"
      },
      {
        "astId": 144,
        "contract": "contracts/RecursiveArtNFT.sol:RecursiveArtNFT",
        "label": "_tokenApprovals",
        "offset": 0,
        "slot": "4",
        "type": "t_mapping(t_uint256,t_address)"
      },
      {
        "astId": 150,
        "contract": "contracts/RecursiveArtNFT.sol:RecursiveArtNFT",
        "label": "_operatorApprovals",
        "offset": 0,
        "slot": "5",
        "type": "t_mapping(t_address,t_mapping(t_address,t_bool))"
      },
      {
        "astId": 1082,
        "contract": "contracts/RecursiveArtNFT.sol:RecursiveArtNFT",
        "label": "_tokenURIs",
        "offset": 0,
        "slot": "6",
        "type": "t_mapping(t_uint256,t_string_storage)"
      },
      {
        "astId": 7,
        "contract": "contracts/RecursiveArtNFT.sol:RecursiveArtNFT",
        "label": "_owner",
        "offset": 0,
        "slot": "7",
        "type": "t_address"
      },
      {
        "astId": 1878,
        "contract": "contracts/RecursiveArtNFT.sol:RecursiveArtNFT",
        "label": "recursiveTokenId",
        "offset": 0,
        "slot": "8",
        "type": "t_struct(Counter)1549_storage"
      },
      {
        "astId": 1881,
        "contract": "contracts/RecursiveArtNFT.sol:RecursiveArtNFT",
        "label": "recursiveExchange",
        "offset": 0,
        "slot": "9",
        "type": "t_contract(RecursiveExchange)2394"
      }
    ],
    "types": {
      "t_address": {
        "encoding": "inplace",
        "label": "address",
        "numberOfBytes": "20"
      },
      "t_bool": {
        "encoding": "inplace",
        "label": "bool",
        "numberOfBytes": "1"
      },
      "t_contract(RecursiveExchange)2394": {
        "encoding": "inplace",
        "label": "contract RecursiveExchange",
        "numberOfBytes": "20"
      },
      "t_mapping(t_address,t_bool)": {
        "encoding": "mapping",
        "key": "t_address",
        "label": "mapping(address => bool)",
        "numberOfBytes": "32",
        "value": "t_bool"
      },
      "t_mapping(t_address,t_mapping(t_address,t_bool))": {
        "encoding": "mapping",
        "key": "t_address",
        "label": "mapping(address => mapping(address => bool))",
        "numberOfBytes": "32",
        "value": "t_mapping(t_address,t_bool)"
      },
      "t_mapping(t_address,t_uint256)": {
        "encoding": "mapping",
        "key": "t_address",
        "label": "mapping(address => uint256)",
        "numberOfBytes": "32",
        "value": "t_uint256"
      },
      "t_mapping(t_uint256,t_address)": {
        "encoding": "mapping",
        "key": "t_uint256",
        "label": "mapping(uint256 => address)",
        "numberOfBytes": "32",
        "value": "t_address"
      },
      "t_mapping(t_uint256,t_string_storage)": {
        "encoding": "mapping",
        "key": "t_uint256",
        "label": "mapping(uint256 => string)",
        "numberOfBytes": "32",
        "value": "t_string_storage"
      },
      "t_string_storage": {
        "encoding": "bytes",
        "label": "string",
        "numberOfBytes": "32"
      },
      "t_struct(Counter)1549_storage": {
        "encoding": "inplace",
        "label": "struct Counters.Counter",
        "members": [
          {
            "astId": 1548,
            "contract": "contracts/RecursiveArtNFT.sol:RecursiveArtNFT",
            "label": "_value",
            "offset": 0,
            "slot": "0",
            "type": "t_uint256"
          }
        ],
        "numberOfBytes": "32"
      },
      "t_uint256": {
        "encoding": "inplace",
        "label": "uint256",
        "numberOfBytes": "32"
      }
    }
  }
}